:1000000045C0000060C000005EC000005CC0000091
:100010005AC0000058C0000056C0000054C0000084
:1000200052C0000050C000004EC000004CC0000094
:100030004AC0000048C0000046C0000044C00000A4
:1000400042C0000040C000003EC000003CC00000B4
:100050004BC0000038C0000036C0000034C00000B3
:1000600032C0000030C000002EC000002CC00000D4
:100070002AC0000028C0000026C0000024C00000E4
:1000800022C0000020C000001EC0000011241FBEBE
:10009000CFEFD0E4DEBFCDBF11E0A0E0B1E0EAECED
:1000A000F5E000E00BBF02C007900D92AA30B10747
:1000B000D9F721E0AAE0B1E001C01D92A132B20758
:1000C000E1F794D080C29CCF57988FEF93EB0197C4
:1000D000F1F700C0000089B190E0880F892F881FD8
:1000E000990B892BC1F308951F920F920FB60F92AF
:1000F00011248F939F939091C600892F877082302F
:1001000089F028F4882341F0813049F013C083300E
:1001100061F0843069F00EC0909320010BC0909381
:10012000080108C09093070105C09093060102C022
:10013000909305019F918F910F900FBE0F901F908C
:10014000189581E080930D0184E080931701089554
:10015000109285001092840085E0809381000895BC
:10016000E1E8F0E080818B7F808380818E7F8083D7
:1001700010928500109284000895109295001092BC
:10018000940085E080939100089580910001909102
:10019000010101979093010180930001181619063F
:1001A00024F081E08093160108958AE0809317017E
:1001B000E4CF0895E1E9F0E080818B7F8083808146
:1001C0008E7F80831092950010929400089581E0B4
:1001D000809315018093140188E691E090931101BA
:1001E0008093100182E08093170108952F923F922F
:1001F0004F925F926F927F928F929F92AF92BF9237
:10020000CF92DF92EF92FF920F931F93CF93DF93E2
:100210008BEF84B978941092C50087E78093C4006F
:10022000E1ECF0E080E1808396E09093C200808171
:10023000806880831092CD0089E08093CC0088E0B4
:100240008093C9009093CA003FDF04E910E0C4E83E
:10025000D0E00F2EF8EC8F2E912CF02D0F2EFAE51A
:10026000EF2EF12CF02D0F2EF4EBCF2ED12CF02D04
:1002700043C1F89420912001822F90E0AC01559564
:1002800047955595479555954795477040931A0161
:10029000082E892F000C881F990B000C881F991FAE
:1002A000817080931901221F2227221F20931B0196
:1002B0008091080186958695869580931D01809191
:1002C000070186958695869580931C01809106018D
:1002D0008695869586958093180120910501822F39
:1002E00090E040911801BC01660F771F660F771FE1
:1002F000362F307E342B30931801082E892F000CB6
:10030000881F990B000C881F991F817080931F0113
:10031000221F2227221F20931E01789483B190E090
:100320009595879595958795892B09F09CC0809127
:1003300014018823A9F02091180180911201909155
:100340001301820F911D909313018093120120914C
:100350001001309111018217930714F06092170178
:1003600080911501882351F080911D01803120F08A
:1003700080911C01803110F46092170180911D0161
:10038000803140F480911B018111F9C003C070924B
:100390000A01D7DE80911F01813029F480911E016E
:1003A000813009F4F2C080911F01813041F47092D4
:1003B0001401F0921101E092100120921701809136
:1003C0001E01813041F470921401F0921101E0920B
:1003D00010014092170180911B01813019F4709235
:1003E0000A01F5DE80911901813019F470920A0139
:1003F000CCDE80910A01811102C070921701F801D0
:10040000808191818035964470F080910B019091AC
:100410000C01019690930C0180930B0105971CF041
:10042000C9DE309217018881998180359644D8F0D1
:1004300080910E0190910F01019690930F0180938E
:100440000E0120910D01222349F0109202015092D9
:1004500017011982188210920D0105C003971CF034
:10046000709202017DDEF401808185FF5EC0809183
:1004700003018330B1F028F4813049F0823061F01B
:1004800031C08530C1F090F08630D1F02BC0809122
:100490002001F501808326C080910801F501808349
:1004A00021C080910701F50180831CC08091060165
:1004B000F501808317C080910501F501808312C08A
:1004C000809117018823A9F02091040127702093BF
:1004D0000401F8E08F9FC0011124822BF501808375
:1004E00010921701809103018F5F80930301873081
:1004F00050F081E080930301772473940F2EFEEC7B
:10050000AF2EB12CF02D0F2EF5E05F2EF02D0F2E1B
:10051000F7E03F2EF02D6894442441F80F2EF3E0CD
:100520002F2EF02D6894662463F88091160188239D
:1005300009F49FCE0DDEE4E8F0E029E034E11AC0D2
:100540008081918180359644D8F311821082809108
:100550000E0190910F01019690930F0180930E016F
:1005600020931701039731F43093170110920F0174
:1005700010920E0180911601882381F0E1CF8091C5
:100580000201882309F406CF02CF70921401D092A1
:100590001101C09210014092170105CF80E090E058
:1005A000DF91CF911F910F91FF90EF90DF90CF904F
:1005B000BF90AF909F908F907F906F905F904F9083
:0A05C0003F902F900895F894FFCFAC
:0A05CA000300010105040302010013
:00000001FF
