:1000000045C0000060C000005EC000005CC0000091
:100010005AC0000058C0000056C0000054C0000084
:1000200052C0000050C000004EC000004CC0000094
:100030004AC0000048C0000046C0000044C00000A4
:1000400042C0000040C000003EC000003CC00000B4
:100050004BC0000038C0000036C0000034C00000B3
:1000600032C0000030C000002EC000002CC00000D4
:100070002AC0000028C0000026C0000024C00000E4
:1000800022C0000020C000001EC0000011241FBEBE
:10009000CFEFD0E4DEBFCDBF11E0A0E0B1E0EEE2F3
:1000A000F3E000E00BBF02C007900D92A630B1074D
:1000B000D9F721E0A6E0B1E001C01D92A331B2075B
:1000C000E1F747D032C19CCF57988FEF93EB019760
:1000D000F1F700C0000089B190E0880F892F881FD8
:1000E000990B892BC1F308951F920F920FB60F92AF
:1000F00011248F939F939091C600892F877082302F
:1001000089F028F4882341F0813049F013C083300E
:1001100061F0843069F00EC0909312010BC090938F
:10012000050108C09093040105C09093030102C02B
:10013000909302019F918F910F900FBE0F901F908F
:100140001895109285001092840085E080938100BC
:1001500008958BEF84B98FEF87B978941092C5001A
:1001600087E78093C400E1ECF0E080E1808396E0D3
:100170009093C2008081806880831092CD0089E0D6
:100180008093CC0088E08093C9009093CA009CDFE4
:10019000809108018111A2C0E8ECF0E051E0AEECE2
:1001A000B0E0F89420911201822F90E0BC01759587
:1001B00067957595679575956795677060930C0160
:1001C000082E892F000C881F990B000C881F991F7F
:1001D000817080930B01221F2227221F20930D0183
:1001E0008091050186958695869580930F01809173
:1001F000040186958695869580930E018091030172
:1002000086958695869580930A0120910201822F1A
:1002100090E040910A01BC01660F771F660F771FBF
:10022000362F307E342B30930A01082E892F000C94
:10023000881F990B000C881F991F817080931101F2
:10024000221F2227221F209310017894808185FF8E
:100250003FC0809100018330A1F028F4813049F043
:10026000823059F02CC08530A1F078F08630A9F0AA
:1002700026C0809112018C9322C0809105018C933D
:100280001EC0809104018C931AC0809103018C934D
:1002900016C0809102018C9312C09091090199239C
:1002A000A9F080910101282F27702093010138E0E7
:1002B000939FC0011124822B8C931092090180918D
:1002C00000018F5F80930001873010F05093000190
:1002D00083B180910801882309F463CF32DFE4E819
:1002E000F0E029E034E11AC08081918180359644A4
:1002F000D8F3118210828091060190910701019636
:10030000909307018093060120930901039731F42C
:1003100030930901109207011092060180910801A3
:0E0320008111E2CF80E090E00895F894FFCFC5
:06032E00010504030201B9
:00000001FF
