:1000000045C0000060C000005EC000005CC0000091
:100010005AC0000058C0000056C0000054C0000084
:1000200052C0000050C000004EC000004CC0000094
:100030004AC0000048C0000046C0000044C00000A4
:1000400042C0000040C000003EC000003CC00000B4
:100050004BC0000038C0000036C0000034C00000B3
:1000600032C0000030C000002EC000002CC00000D4
:100070002AC0000028C0000026C0000024C00000E4
:1000800022C0000020C000001EC0000011241FBEBE
:10009000CFEFD0E4DEBFCDBF11E0A0E0B1E0EEE4F1
:1000A000F3E000E00BBF02C007900D92A630B1074D
:1000B000D9F721E0A6E0B1E001C01D92A631B20758
:1000C000E1F75AD042C19CCF57988FEF93EB01973D
:1000D000F1F700C0000089B190E0880F892F881FD8
:1000E000990B892BC1F308951F920F920FB60F92AF
:1000F00011248F939F939091C600892F8770813030
:1001000049F028F0823049F0843051F010C09093CB
:1001100015010DC0909305010AC09093040107C01A
:10012000809102018873977C982B909302019F9194
:100130008F910F900FBE0F901F9018951092850011
:100140001092840085E080938100089521E020933F
:100150000A019093090180930801662321F082E04F
:1001600080930C0103C083E080930C01E1EBF0E08D
:1001700080818760808308958BEF84B97894109292
:10018000C50087E78093C400E1ECF0E080E1808364
:1001900096E09093C2008081806880831092CD00A9
:1001A00089E08093CC0088E08093C9009093CA00D6
:1001B0008BDF60E08AE590E0C9DFE8ECF0E0AEECD0
:1001C000B0E051E096C0F89420911501822F90E0A4
:1001D000BC01759567957595679575956795677079
:1001E00060930F01082E892F000C881F990B000CBB
:1001F000881F991F817080930E01221F2227221FC2
:1002000020931001809105018695869586958093AF
:10021000120180910401869586958695809311013F
:100220008091030186958695869580930D01209196
:100230000201822F90E040910D01BC01660F771FF3
:10024000660F771F362F307E342B30930D01082E2A
:10025000892F000C881F990B000C881F991F817033
:1002600080931401221F2227221F209313017894C8
:10027000808185FF3EC0809100018330A1F028F489
:10028000813049F0823059F02BC08530A1F078F0F0
:100290008630A9F025C0809115018C9321C08091F2
:1002A00005018C931DC0809104018C9319C080912D
:1002B00003018C9315C0809102018C9311C0809131
:1002C0000C018823A1F020910101277020930101E6
:1002D00038E0839FC0011124822B8C9310920C0173
:1002E000809100018F5F80930001873010F0509360
:1002F000000180910B01882309F465CF1FDFE4E83A
:10030000F0E029E034E11AC0808191818035964483
:10031000D8F3118210828091060190910701019615
:10032000909307018093060120930C01039731F409
:1003300030930C01109207011092060180910B017D
:0E0340008111E2CF80E090E00895F894FFCFA5
:06034E0001050403020199
:00000001FF
