:1000000045C0000061C000005FC000005DC000008E
:100010005BC0000059C0000057C0000055C0000080
:1000200053C0000051C000004FC000004DC0000090
:100030004BC0000049C0000047C0000045C00000A0
:1000400043C0000041C000003FC000003DC00000B0
:1000500095C0000039C0000037C0000035C0000066
:1000600033C0000031C000002FC000002DC00000D0
:100070002BC0000029C0000027C0000025C00000E0
:1000800023C0000021C000001FC0000011241FBEBB
:10009000CFEFD0E4DEBFCDBF11E0A0E0B1E0E2EAF7
:1000A000F1E100E00BBF02C007900D92A431B1074F
:1000B000D9F721E0A4E1B1E001C01D92A933B20754
:1000C000E1F772D40C94CF089BCF57988FEF93EB46
:1000D0000197F1F700C0000089B190E0880F892FE7
:1000E000881F990B892BC1F308958091C80085FF63
:1000F00044C080910E018330B1F028F4813049F082
:10010000823061F030C08530C1F090F08630D1F09F
:100110002AC0809138018093CE0025C080911301C0
:100120008093CE0020C0809112018093CE001BC02E
:10013000809111018093CE0016C0809110018093B0
:10014000CE0011C080912F018823A1F090910F0162
:10015000977090930F01880F880F880F892B8093D9
:10016000CE0010922F0180910E018F5F80930E01BF
:10017000873018F081E080930E0108951F920F924E
:100180000FB60F9211248F939F939091C600892FE1
:100190008770823089F028F4882341F0813049F05B
:1001A00013C0833061F0843069F00EC09093380141
:1001B0000BC09093130108C09093120105C0909357
:1001C000110102C0909310019F918F910F900FBE6B
:1001D0000F901F90189510922C01109215011092FB
:1001E0001601109217011092180110922801109216
:1001F000290110922A0110922B011092B200E1EB1A
:10020000F0E09081987F908380932F01089560396A
:100210002FE5720721E08207910551F174F4643EE5
:1002200027E572078105910509F448C0683C2FEA6B
:10023000720781059105B9F02FC060322FEB72076C
:1002400022E082079105F1F060342EE7720725E085
:1002500082079105E1F068352FE0720722E08207FE
:100260009105D1F40AC068E672E480E090E0089558
:1002700068EE70E880E090E0089560E87BEB80E055
:1002800090E0089560E372EF80E090E0089560EF01
:100290007CEC81E090E0089592D520EA3AEA46EAC3
:1002A00053E41DD620E030E04AE754E4EDD420E0EA
:1002B00030E44CE155E484D44FC5089560E177E221
:1002C00080E090E00895CF92DF92EF92FF92CF937B
:1002D0006B017C01C42F81E080932C0110922D01D1
:1002E0001092150110921601109217011092180128
:1002F000C701B6018CDFC61AD70AE80AF90AC0920C
:100300002801D0922901E0922A01F0922B01CC23FE
:1003100021F082E080932F0103C083E080932F01BE
:100320001092B200E1EBF0E0808187608083CF9192
:10033000FF90EF90DF90CF900895CF92DF92EF92F1
:10034000FF928091B2008A3508F45CC01092B2002E
:100350008091300190E080589109BC0122F4662719
:100360007727681B790B072E000C880B990B27D574
:100370009B01AC0125D420E030E040EA50E4AFD549
:1003800020911501309116014091170150911801EB
:1003900017D46B017C016093150170931601809353
:1003A00017019093180160912801709129018091A3
:1003B0002A0190912B0103D59B01AC01C701B60125
:1003C0008AD588230CF180912001882349F041E0EF
:1003D00068EC7FEA80E090E076DF1092200106C0B2
:1003E00081E090E0F8DE81E0809304011092140136
:1003F00010921B0110921C0110921D0110921E01FF
:1004000081E003C080E001C080E0FF90EF90DF90CA
:10041000CF90089581E08093270116BC85E085BDCB
:100420001092240110922301089585B58B7F85BD1C
:1004300085B58E7F85BD16BC1092240110922301D4
:100440000895109285001092840085E080938100C9
:100450000895CF92DF92EF92FF920F931F9381E066
:100460008093200110920D0180932C0110921501B0
:1004700010921601109217011092180164EE77E5A0
:1004800080E090E0C4DE04EE17E520E030E0680193
:100490007901C61AD70AE80AF90AC0922801D0924F
:1004A0002901E0922A01F0922B01E1EBF0E080813A
:1004B000876080838BE080932F01C3DF1F910F91B2
:1004C000FF90EF90DF90CF900895E1E8F0E0808119
:1004D0008B7F808380818E7F808310928500109235
:1004E00084000895109295001092940010921A01C1
:1004F0001092190185E080939100089580910B017D
:1005000090910C01019790930C0180930B012AE0CC
:1005100020932F011816190624F081E080932E01F4
:100520000895E0CF0895E1E9F0E080818B7F80833A
:1005300080818E7F8083109295001092940010929B
:100540001A011092190108958091350190E02091CF
:10055000050130910601281739076CF140911B0104
:1005600050911C0160911D0170911E018091070145
:1005700090910801A0910901B0910A01481759070B
:100580006A077B07C4F080910D01811108C013C078
:1005900040E060E47EE785E090E095CE089559DF85
:1005A0001092140110921B0110921C0110921D0157
:1005B00010921E01089580912C01882349F308951B
:1005C00080913701813059F48091270181111FC03A
:1005D0000CC080912701882389F080E008958091E4
:1005E00036018130B1F380E0089581E080932601E7
:1005F00011DF8CE080932F0181E0089581E08093EA
:10060000250108DF8CE080932F0181E0089580911F
:10061000360180E00895CF93C0912701CC2309F4DF
:1006200057C086B5843B08F450C016BC80912301A6
:100630009091240101969093240180932301C29705
:100640000CF445C010922701F0DEC0912601CC23A6
:10065000E1F01092260138D56AEA70E0C7D428EE9E
:1006600033E0829FB001839F700D929F700D112423
:10067000CB01770FAA0BBB0BBC01CD01605A7541B2
:100680008F4F9F4F40E01FDE23C0C0912501CC2338
:10069000F9F01092250118D56AEA70E0A7D428EE87
:1006A00033E0829FB001839F700D929F700D1124E3
:1006B000CB01770FAA0BBB0BBC01CD01605A754172
:1006C0008F4F9F4F41E0FFDD03C0C0E001C0C0E09D
:1006D0008C2FCF910895809133018823A1F140910F
:1006E0001B0150911C0160911D0170911E018091B0
:1006F000070190910801A0910901B0910A01880FAA
:10070000991FAA1FBB1F481759076A077B070CF0E0
:1007100045C080912C01811105C083E090E0A0E0EC
:10072000B0E004C088E090E0A0E0B0E0480F591FBE
:100730006A1F7B1F40931B0150931C0160931D0196
:1007400070931E012BC080911B0190911C01A09100
:100750001D01B0911E0120912C01211105C045E021
:1007600050E060E070E004C04FE050E060E070E016
:10077000841B950BA60BB70B4AF080931B0190933B
:100780001C01A0931D01B0931E0108C010921B0113
:1007900010921C0110921D0110921E0140911B012C
:1007A00050911C0160911D0170911E018091070103
:1007B00090910801A0910901B0910A0148175907C9
:1007C0006A077B073CF080911401811103C081E02E
:1007D00080931401089580913101813051F480910A
:1007E0001F01811116C00BC080911F0181110DC026
:1007F0000895809131018823B9F380E0089581E064
:1008000080931F017BDE81E0089510921F0180E03C
:100810000895809131018823C1F380E0089580918B
:100820008400909185008035964438F180912101B3
:1008300090912201019690932201809321011092C0
:1008400085001092840080912101909122018130D5
:10085000910539F485E080932F011092200181E009
:100860000895049761F481E080930D012EDE1092CB
:1008700022011092210180E0089580E0089580E037
:100880000895809194009091950080359644A8F049
:1008900010929500109294008091190190911A0184
:1008A000019690931A0180931901059744F03BDE5D
:1008B00087E080932F0181E0089580E0089580E033
:1008C000089580913501833030F480912C01882384
:1008D00021F080E0089580E00895F6D3482F41701C
:1008E00060E878E381E090E0EEDC81E00895F89440
:1008F00020913801822F90E0AC0155954795559590
:10090000479555954795477040933201082E892F9A
:10091000000C881F990B000C881F991F8170809311
:100920003101221F2227221F2093330180911301BE
:100930008695869586958093350180913501811144
:1009400002C0409A01C04098809112018695869518
:1009500086958093340180911101869586958695C0
:100960008093300120911001822F90E0409130015E
:10097000BC01660F771F660F771F362F307E342B32
:1009800030933001082E892F000C881F990B000C22
:10099000881F991F817080933701221F2227221FF1
:1009A00020933601789408959F92AF92BF92CF9290
:1009B000DF92EF92FF920F931F93CF93DF938BEF12
:1009C00084B98FEF87B978941092C50087E7809338
:1009D000C400E1ECF0E080E1808396E09093C200F7
:1009E0008081806880831092CD0089E08093CC0064
:1009F00088E08093C9009093CA0067DB41E060E51E
:100A000073EC80E090E05FDC45C071DF6EDB83B1AA
:100A100090E09595879595958795892B01F55BDEF7
:100A2000DADE811137C02DDF811134C0C9DD8111BB
:100A300031C0F1DD81112EC0F2DE81112BC041DF0A
:100A4000811128C080912C01882319F076DC811156
:100A500021C0809114018823E9F076DD1BC03BDEC4
:100A6000BADE811117C00DDF811114C0A9DD81111B
:100A700011C0D1DD81110EC0D2DE81110BC0809179
:100A80002C01882319F059DC811104C080911401D4
:100A900081115ADD80912E01882309F4B6CFD1DC73
:100AA0008DE080932F01C12C04E910E0C4E8D0E070
:100AB0000F2EF4E19F2EF02D0F2EF9E0DF2EF02DFA
:100AC0006894AA24A3F8FF24F3940F2EF3E0BF2E1A
:100AD000F02D6894EE24E1F840C007DB08DF809138
:100AE0003701813009F043C08091260181114EC049
:100AF00039C08091250181114FC03EC080912501F0
:100B0000882339F0C11005C0F0922F01EBDCCF2C07
:100B100024C0F801808191818035964418F0A0921C
:100B20002F0101DD888199818A3C9840B0F01982BB
:100B300018828091210190912201019690932201C7
:100B400080932101049719F0D0922F0106C0909252
:100B50002F01109222011092210180912E0181110A
:100B6000BCCF1FC0F0922601E0922F01F6CF8091FA
:100B70003601813031F4BDCFF0922501B0922F01C2
:100B8000ECCF809126018111B9CFC3CF809136017E
:100B9000813009F0B3CFADCF809126018111B2CF62
:100BA000B8CF80E090E0DF91CF911F910F91FF903F
:100BB000EF90DF90CF90BF90AF909F9008955058E6
:100BC000BB27AA270ED04DC13ED130F043D120F033
:100BD00031F49F3F11F41EF433C10EF4E095E7FBAE
:100BE00029C1E92F4FD180F3BA1762077307840731
:100BF000950718F071F49EF567C10EF4E0950B2E81
:100C0000BA2FA02D0B01B90190010C01CA01A0015E
:100C10001124FF27591B99F0593F50F4503E68F1B9
:100C20001A16F040A22F232F342F4427585FF3CFFA
:100C3000469537952795A795F0405395C9F77EF4CB
:100C40001F16BA0B620B730B840BBAF09150A1F014
:100C5000FF0FBB1F661F771F881FC2F70EC0BA0F9A
:100C6000621F731F841F48F4879577956795B79522
:100C7000F7959E3F08F0B3CF9395880F08F099271A
:100C8000EE0F9795879508950CD0EBC0E3D040F018
:100C9000DAD030F021F45F3F19F0CCC0511115C10A
:100CA000CFC0F0D098F39923C9F35523B1F3951B26
:100CB000550BBB27AA2762177307840738F09F5F7D
:100CC0005F4F220F331F441FAA1FA9F333D00E2EEC
:100CD0003AF0E0E830D091505040E695001CCAF759
:100CE00029D0FE2F27D0660F771F881FBB1F26171E
:100CF00037074807AB07B0E809F0BB0B802DBF01F1
:100D0000FF2793585F4F2AF09E3F510568F092C02D
:100D1000DCC05F3FECF3983EDCF3869577956795F2
:100D2000B795F7959F5FC9F7880F911D96958795A1
:100D300097F90895E1E0660F771F881FBB1F6217C0
:100D400073078407BA0720F0621B730B840BBA0B7E
:100D5000EE1F88F7E095089504D06894B111B5C0EE
:100D6000089598D088F09F5790F0B92F9927B751E0
:100D7000A0F0D1F0660F771F881F991F1AF0BA955F
:100D8000C9F712C0B13081F09FD0B1E008959CC086
:100D9000672F782F8827B85F39F0B93FCCF3869555
:100DA00077956795B395D9F73EF4909580957095B2
:100DB00061957F4F8F4F9F4F0895E89409C097FB2F
:100DC0003EF490958095709561957F4F8F4F9F4F22
:100DD0009923A9F0F92F96E9BB279395F695879566
:100DE00077956795B795F111F8CFFAF4BB0F11F429
:100DF00060FF1BC06F5F7F4F8F4F9F4F16C08823D0
:100E000011F096E911C0772321F09EE8872F762F05
:100E100005C0662371F096E8862F70E060E02AF046
:100E20009A95660F771F881FDAF7880F9695879532
:100E300097F9089597F99F6780E870E060E008955A
:100E40009FEF80EC089500240A94161617061806E2
:100E50000906089500240A941216130614060506BE
:100E60000895092E0394000C11F4882352F0BB0F4F
:100E700040F4BF2B11F460FF04C06F5F7F4F8F4FB2
:100E80009F4F089557FD9058440F551F59F05F3FED
:100E900071F04795880F97FB991F61F09F3F79F09C
:100EA00087950895121613061406551FF2CF46951E
:100EB000F1DF08C0161617061806991FF1CF8695A0
:100EC0007105610508940895E894BB276627772784
:100ED000CB0197F9089566D008F48FEF08950BD0F1
:100EE000C0CFB1DF28F0B6DF18F0952309F0A2CF0C
:100EF000A7CF1124EACFC6DFA0F3959FD1F3950FBA
:100F000050E0551F629FF001729FBB27F00DB11D8D
:100F1000639FAA27F00DB11DAA1F649F6627B00D1D
:100F2000A11D661F829F2227B00DA11D621F739F06
:100F3000B00DA11D621F839FA00D611D221F749F14
:100F40003327A00D611D231F849F600D211D822F5B
:100F5000762F6A2F11249F5750408AF0E1F08823A2
:100F60004AF0EE0FFF1FBB1F661F771F881F9150AF
:100F70005040A9F79E3F510570F05CCFA6CF5F3F70
:100F8000ECF3983EDCF3869577956795B795F795E2
:100F9000E7959F5FC1F7FE2B880F911D969587956A
:100FA00097F90895990F0008550FAA0BE0E8FEEF96
:100FB00016161706E807F907C0F012161306E4071D
:100FC000F50798F0621B730B840B950B39F40A2616
:100FD00061F0232B242B252B21F408950A2609F4F4
:100FE000A140A6958FEF811D811D089597FB072EC7
:100FF00016F4009406D077FD08D00BD007FC05D07E
:101000003EF4909581959F4F0895709561957F4F1F
:101010000895AA1BBB1B51E107C0AA1FBB1FA6173F
:10102000B70710F0A61BB70B881F991F5A95A9F791
:1010300080959095BC01CD0108958F929F92AF92BB
:10104000BF92CF92DF92EF92FF92CF93DF93EC01AA
:10105000688179818A819B8161157105810591057E
:1010600021F464E279ED8BE597E02DE133EF41E087
:1010700050E038D049015A019B01AC01A7EAB1E424
:101080004DD06B017C01ACEEB4EFA501940152D0C0
:10109000DC01CB018C0D9D1DAE1DBF1DB7FF03C034
:1010A0000197A109B04888839983AA83BB839F775E
:1010B000DF91CF91FF90EF90DF90CF90BF90AF90F6
:1010C0009F908F900895B9CF80E091E0B6CFA0E0D7
:1010D000B0E08093000190930101A0930201B093CE
:1010E00003010895052E97FB16F400940FD057FDC9
:1010F00005D024D007FC02D046F408C05095409596
:10110000309521953F4F4F4F5F4F089590958095B3
:10111000709561957F4F8F4F9F4F089531D0A59F58
:10112000900DB49F900DA49F800D911D11240895E2
:10113000B7FFF4CFF3DF821B930B0895A1E21A2EC1
:10114000AA1BBB1BFD010DC0AA1FBB1FEE1FFF1F6B
:10115000A217B307E407F50720F0A21BB30BE40BBB
:10116000F50B661F771F881F991F1A9469F7609502
:101170007095809590959B01AC01BD01CF010895BC
:10118000A29FB001B39FC001A39F700D811D1124C8
:10119000911DB29F700D811D1124911D0895F89429
:0211A000FFCF7F
:1011A2000100000001140050C3000003000101050A
:0411B200040302012F
:00000001FF
