:1000000045C0000061C000005FC000005DC000008E
:100010005BC0000059C0000057C0000055C0000080
:1000200053C0000051C000004FC000004DC0000090
:100030004BC0000049C0000047C0000045C00000A0
:1000400043C0000041C000003FC000003DC00000B0
:100050009FC0000039C0000037C0000035C000005C
:1000600033C0000031C000002FC000002DC00000D0
:100070002BC0000029C0000027C0000025C00000E0
:1000800023C0000021C000001FC0000011241FBEBB
:10009000CFEFD0E4DEBFCDBF11E0A0E0B1E0E4E4FB
:1000A000F1E100E00BBF02C007900D92A031B10753
:1000B000D9F721E0A0E1B1E001C01D92A635B20759
:1000C000E1F72ED40C94A0089BCF57988FEF93EBB9
:1000D0000197F1F700C0000089B190E0880F892FE7
:1000E000881F990B892BC1F308958091C80085FF63
:1000F0004EC080910A01833001F128F4813049F02B
:100100008230B1F03AC0853011F1E0F0863021F153
:1001100034C080911701982F990F990F990F8091F2
:100120005501877C892B809355018093CE0025C093
:1001300080910F018093CE0020C080910E018093AA
:10014000CE001BC080910D018093CE0016C080911F
:100150000C018093CE0011C080914C018823A1F046
:1001600090910B01977090930B01880F880F880F67
:10017000892B8093CE0010924C0180910A018F5FF1
:1001800080930A01873018F081E080930A01089576
:100190001F920F920FB60F9211248F939F939091FD
:1001A000C600892F8770823089F028F4882341F0B7
:1001B000813049F013C0833061F0843069F00EC0A3
:1001C000909355010BC090930F0108C090930E01BE
:1001D00005C090930D0102C090930C019F918F91E7
:1001E0000F900FBE0F901F9018951092490110921A
:1001F0001101109212011092130110921401109229
:100200004501109246011092470110924801109248
:10021000B200E1EBF0E09081987F908380934C01F5
:10022000089560392FE5720721E08207910551F1A9
:1002300074F4643E27E572078105910509F448C00E
:10024000683C2FEA720781059105B9F02FC0603232
:100250002FEB720722E082079105F1F060342EE760
:10026000720725E082079105E1F068352FE07207FB
:1002700022E082079105D1F40AC068E672E480E0CA
:1002800090E0089568EE70E880E090E0089560E8FE
:100290007BEB80E090E0089560E372EF80E090E017
:1002A000089560EF7CEC81E090E0089559D520EA54
:1002B0003AEA46EA53E4E4D520E030E04AE754E481
:1002C000B4D420E030E44CE155E44BD416C5089595
:1002D00060E177E280E090E00895CF92DF92EF92C4
:1002E000FF92CF936B017C01C42F81E08093490181
:1002F00010924A01109211011092120110921301F2
:1003000010921401C701B6018CDFC61AD70AE80A99
:10031000F90AC0924501D0924601E0924701F0925D
:100320004801CC2321F082E080934C0103C083E09C
:1003300080934C011092B200E1EBF0E08081876085
:100340008083CF91FF90EF90DF90CF900895CF9270
:10035000DF92EF92FF928091B2008A3508F45CC080
:100360001092B20080914D0190E080589109BC013B
:1003700022F466277727681B790B072E000C880B61
:10038000990BEED49B01AC01ECD320E030E040EAC5
:1003900050E476D520911101309112014091130162
:1003A00050911401DED36B017C01609311017093B5
:1003B0001201809313019093140160914501709193
:1003C00046018091470190914801CAD49B01AC013C
:1003D000C701B60151D588230CF180913D018823D6
:1003E00049F041E068EC7FEA80E090E076DF10922F
:1003F0003D0106C081E090E0F8DE81E080930401D9
:1004000010921001109238011092390110923A01A5
:1004100010923B0181E003C080E001C080E0FF90CA
:10042000EF90DF90CF90089581E08093440116BC57
:1004300085E085BD1092410110924001089585B577
:100440008B7F85BD85B58E7F85BD16BC1092410121
:10045000109240010895109285001092840085E06A
:10046000809381000895CF92DF92EF92FF920F93D5
:100470001F9381E080933D0110920901809349010F
:100480001092110110921201109213011092140196
:1004900064EE77E580E090E0C4DE04EE17E520E04E
:1004A00030E068017901C61AD70AE80AF90AC09251
:1004B0004501D0924601E0924701F0924801E1EBFC
:1004C000F0E08081876080838BE080934C01C3DF04
:1004D0001F910F91FF90EF90DF90CF900895E1E88A
:1004E000F0E080818B7F808380818E7F808310927B
:1004F0008500109284000895109295001092940047
:10050000109216011092150185E0809391000895D4
:1005100080910701909108010197909308018093C1
:1005200007012AE020934C011816190624F081E0F7
:1005300080934B010895E0CF0895E1E9F0E08081D8
:100540008B7F808380818E7F8083109295001092B4
:100550009400109216011092150108958091520195
:1005600090E0209105013091060128173907E4F049
:10057000809117018630C1F080910901811108C076
:1005800013C040E060E47EE785E090E0A6CE0895E9
:100590006ADF109210011092380110923901109206
:1005A0003A0110923B01089580914901882349F353
:1005B000089580915401813059F480914401811152
:1005C0001FC00CC080914401882389F080E0089509
:1005D000809153018130B1F380E0089581E08093F0
:1005E000430122DF8CE080934C0181E0089581E09B
:1005F0008093420119DF8CE080934C0181E00895E3
:100600008091530180E00895CF93C0914401CC23A1
:1006100009F457C086B5843B08F450C016BC8091DD
:1006200040019091410101969093410180934001D6
:10063000C2970CF445C01092440101DFC091430100
:10064000CC23E1F01092430110D56AEA70E09FD408
:1006500028EE33E0829FB001839F700D929F700D52
:100660001124CB01770FAA0BBB0BBC01CD01605A43
:1006700075418F4F9F4F40E030DE23C0C091420153
:10068000CC23F9F010924201F0D46AEA70E07FD4F2
:1006900028EE33E0829FB001839F700D929F700D12
:1006A0001124CB01770FAA0BBB0BBC01CD01605A03
:1006B00075418F4F9F4F41E010DE03C0C0E001C085
:1006C000C0E08C2FCF910895CF93DF93E8E1F1E064
:1006D00031E020E076E051E062E003C034962F5F25
:1006E0003F5FEF0180819181A281B3812630B1F318
:1006F00040914F01421313C084369105A105B10505
:100700001CF40196A11DB11D82339105A105B1050F
:10071000E4F048B1462748B92093170116C01816CF
:1007200019061A061B0634F40197A109B10948B14C
:10073000452748B940911701421307C082339105FC
:10074000A105B10514F47093170188839983AA83D6
:10075000BB83383018F2DF91CF91089580914E011C
:10076000813051F480913C01811116C00BC0809101
:100770003C0181110DC0089580914E018823B9F389
:1007800080E0089581E080933C01C2DE81E008951D
:1007900010923C0180E0089580914E018823C1F3BE
:1007A00080E0089580918400909185008035964482
:1007B00038F180913E0190913F01019690933F0165
:1007C00080933E01109285001092840080913E013A
:1007D00090913F018130910539F485E080934C017F
:1007E00010923D0181E00895049761F481E08093C7
:1007F000090175DE10923F0110923E0180E00895DC
:1008000080E0089580E00895809194009091950093
:1008100080359644A8F01092950010929400809133
:100820001501909116010196909316018093150180
:10083000059744F082DE87E080934C0181E00895C3
:1008400080E0089580E0089580915201833030F473
:1008500080914901882321F080E0089580E0089587
:1008600004D4482F417060E878E381E090E035DD02
:1008700081E00895F89420915501822F90E0AC0119
:10088000559547955595479555954795477040938C
:100890004F01082E892F000C881F990B000C881F10
:1008A000991F817080934E01221F2227221F2093BF
:1008B000500180910F01869586958695809352010F
:1008C00080910E0186958695869580935101809141
:1008D0000D0186958695869580934D0120910C019A
:1008E000822F90E040914D01BC01660F771F660F8B
:1008F000771F362F307E342B30934D01082E892FF1
:10090000000C881F990B000C881F991F8170809321
:100910005401221F2227221F209353017894089507
:100920009F92AF92BF92CF92DF92EF92FF920F937E
:100930001F93CF93DF938BEF84B98FEF87B97894B0
:100940001092C50087E78093C400E1ECF0E080E1FD
:10095000808396E09093C2008081806880831092AB
:10096000CD0089E08093CC0088E08093C90090930B
:10097000CA00ABDB41E060E573EC80E090E0ADDC09
:10098000C1E059C077DFB1DB83B190E095958795E1
:1009900095958795892B51F597DE809117018630C3
:1009A00031F080911001811102C0C0931001D6DE98
:1009B000811141C029DF81113EC0FBDD81113BC0A7
:1009C00023DE811138C0EEDE811135C03DDF81119B
:1009D00032C080914901882319F0B9DC81112BC004
:1009E00080911001882339F1B9DD25C06DDE809139
:1009F0001701863031F080911001811102C0C0933F
:100A00001001ACDE811117C0FFDE811114C0D1DDF1
:100A1000811111C0F9DD81110EC0C4DE81110BC03E
:100A200080914901882319F092DC811104C08091E2
:100A30001001811193DD80914B01882309F4A2CF2D
:100A40000ADD8DE080934C01C12C04E910E0C4E87C
:100A5000D0E00F2EF4E19F2EF02D0F2EF9E0DF2EC7
:100A6000F02D6894AA24A3F8FF24F3940F2EF3E04A
:100A7000BF2EF02D6894EE24E1F840C036DBFADE9C
:100A800080915401813009F043C08091430181116C
:100A90004EC039C08091420181114FC03EC080914B
:100AA0004201882339F0C11005C0F0924C0124DDC9
:100AB000CF2C24C0F801808191818035964418F0B4
:100AC000A0924C013ADD888199818A3C9840B0F02F
:100AD0001982188280913E0190913F010196909376
:100AE0003F0180933E01049719F0D0924C0106C05B
:100AF00090924C0110923F0110923E0180914B0167
:100B00008111BCCF1FC0F0924301E0924C01F6CF9F
:100B100080915301813031F4BDCFF0924201B09207
:100B20004C01ECCF809143018111B9CFC3CF8091AB
:100B30005301813009F0B3CFADCF809143018111D2
:100B4000B2CFB8CF80E090E0DF91CF911F910F91AD
:100B5000FF90EF90DF90CF90BF90AF909F9008955F
:100B60005058BB27AA270ED04DC13ED130F043D1FB
:100B700020F031F49F3F11F41EF433C10EF4E095E0
:100B8000E7FB29C1E92F4FD180F3BA17620773073A
:100B90008407950718F071F49EF567C10EF4E0958F
:100BA0000B2EBA2FA02D0B01B90190010C01CA0127
:100BB000A0011124FF27591B99F0593F50F4503ED2
:100BC00068F11A16F040A22F232F342F4427585FC4
:100BD000F3CF469537952795A795F0405395C9F7DC
:100BE0007EF41F16BA0B620B730B840BBAF0915094
:100BF000A1F0FF0FBB1F661F771F881FC2F70EC033
:100C0000BA0F621F731F841F48F487957795679505
:100C1000B795F7959E3F08F0B3CF9395880F08F0EE
:100C20009927EE0F9795879508950CD0EBC0E3D0E8
:100C300040F0DAD030F021F45F3F19F0CCC0511110
:100C400015C1CFC0F0D098F39923C9F35523B1F360
:100C5000951B550BBB27AA2762177307840738F02B
:100C60009F5F5F4F220F331F441FAA1FA9F333D08A
:100C70000E2E3AF0E0E830D091505040E695001C3E
:100C8000CAF729D0FE2F27D0660F771F881FBB1FFA
:100C9000261737074807AB07B0E809F0BB0B802DD4
:100CA000BF01FF2793585F4F2AF09E3F510568F020
:100CB00092C0DCC05F3FECF3983EDCF386957795FD
:100CC0006795B795F7959F5FC9F7880F911D969522
:100CD000879597F90895E1E0660F771F881FBB1F7E
:100CE000621773078407BA0720F0621B730B840B2B
:100CF000BA0BEE1F88F7E095089504D06894B111FF
:100D0000B5C0089598D088F09F5790F0B92F9927D3
:100D1000B751A0F0D1F0660F771F881F991F1AF006
:100D2000BA95C9F712C0B13081F09FD0B1E00895F3
:100D30009CC0672F782F8827B85F39F0B93FCCF374
:100D4000869577956795B395D9F73EF490958095FC
:100D5000709561957F4F8F4F9F4F0895E89409C01C
:100D600097FB3EF490958095709561957F4F8F4FDE
:100D70009F4F9923A9F0F92F96E9BB279395F695F4
:100D8000879577956795B795F111F8CFFAF4BB0F72
:100D900011F460FF1BC06F5F7F4F8F4F9F4F16C0D6
:100DA000882311F096E911C0772321F09EE8872F60
:100DB000762F05C0662371F096E8862F70E060E01C
:100DC0002AF09A95660F771F881FDAF7880F969595
:100DD000879597F9089597F99F6780E870E060E03C
:100DE00008959FEF80EC089500240A9416161706C4
:100DF00018060906089500240A941216130614060C
:100E000005060895092E0394000C11F4882352F06E
:100E1000BB0F40F4BF2B11F460FF04C06F5F7F4F26
:100E20008F4F9F4F089557FD9058440F551F59F00D
:100E30005F3F71F04795880F97FB991F61F09F3FC7
:100E400079F087950895121613061406551FF2CFF0
:100E50004695F1DF08C0161617061806991FF1CF40
:100E600086957105610508940895E894BB27662767
:100E70007727CB0197F9089566D008F48FEF08958E
:100E80000BD0C0CFB1DF28F0B6DF18F0952309F002
:100E9000A2CFA7CF1124EACFC6DFA0F3959FD1F34D
:100EA000950F50E0551F629FF001729FBB27F00D18
:100EB000B11D639FAA27F00DB11DAA1F649F66276D
:100EC000B00DA11D661F829F2227B00DA11D621FBC
:100ED000739FB00DA11D621F839FA00D611D221F76
:100EE000749F3327A00D611D231F849F600D211D5A
:100EF000822F762F6A2F11249F5750408AF0E1F0FD
:100F000088234AF0EE0FFF1FBB1F661F771F881F45
:100F100091505040A9F79E3F510570F05CCFA6CF8D
:100F20005F3FECF3983EDCF3869577956795B79530
:100F3000F795E7959F5FC1F7FE2B880F911D96955A
:100F4000879597F90895990F0008550FAA0BE0E8C7
:100F5000FEEF16161706E807F907C0F0121613067B
:100F6000E407F50798F0621B730B840B950B39F4BB
:100F70000A2661F0232B242B252B21F408950A2621
:100F800009F4A140A6958FEF811D811D089597FB5F
:100F9000072E16F4009406D077FD08D00BD007FC7E
:100FA00005D03EF4909581959F4F08957095619579
:100FB0007F4F0895AA1BBB1B51E107C0AA1FBB1F8F
:100FC000A617B70710F0A61BB70B881F991F5A95D5
:100FD000A9F780959095BC01CD0108958F929F92BD
:100FE000AF92BF92CF92DF92EF92FF92CF93DF93B7
:100FF000EC01688179818A819B8161157105810588
:10100000910521F464E279ED8BE597E02DE133EF72
:1010100041E050E038D049015A019B01AC01A7EAF8
:10102000B1E44DD06B017C01ACEEB4EFA5019401AD
:1010300052D0DC01CB018C0D9D1DAE1DBF1DB7FF35
:1010400003C00197A109B04888839983AA83BB8311
:101050009F77DF91CF91FF90EF90DF90CF90BF907F
:10106000AF909F908F900895B9CF80E091E0B6CF78
:10107000A0E0B0E08093000190930101A0930201F1
:10108000B09303010895052E97FB16F400940FD03A
:1010900057FD05D024D007FC02D046F408C0509577
:1010A0004095309521953F4F4F4F5F4F0895909554
:1010B0008095709561957F4F8F4F9F4F089531D0E8
:1010C000A59F900DB49F900DA49F800D911D11249C
:1010D0000895B7FFF4CFF3DF821B930B0895A1E2CD
:1010E0001A2EAA1BBB1BFD010DC0AA1FBB1FEE1FA2
:1010F000FF1FA217B307E407F50720F0A21BB30BED
:10110000E40BF50B661F771F881F991F1A9469F768
:1011100060957095809590959B01AC01BD01CF01C4
:101120000895A29FB001B39FC001A39F700D811DC0
:101130001124911DB29F700D811D1124911D0895E0
:04114000F894FFCF51
:101144000100000001140003000101050403020171
:00000001FF
