S02100004D616C736F6B6E696E6773656E686574656E5F365F322831292E73726563EE
S113000045C0000061C000005FC000005DC000008A
S11300105BC0000059C0000057C0000055C000007C
S113002053C0000051C000004FC000004DC000008C
S11300304BC0000049C0000047C0000045C000009C
S113004043C0000041C000003FC000003DC00000AC
S1130050A1C0000039C0000037C0000035C0000056
S113006033C0000031C000002FC000002DC00000CC
S11300702BC0000029C0000027C0000025C00000DC
S113008023C0000021C000001FC0000011241FBEB7
S1130090CFEFD0E4DEBFCDBF11E0A0E0B1E0E4ECEF
S11300A0F1E100E00BBF02C007900D92A031B1074F
S11300B0D9F721E0A0E1B1E001C01D92A533B20758
S11300C0E1F75BD40C94E0089BCF57988FEF93EB48
S11300D00197F1F700C0000089B190E0880F892FE3
S11300E0881F990B892BC1F308958091C80085FF5F
S11300F050C080910901833011F128F4813049F016
S11301008230C1F03CC0853021F1F0F0863031F10D
S113011036C0809134018F778093340190912F0100
S1130120992319F08068809334018091340180937D
S1130130CE0025C080910E018093CE0020C0809116
S11301400D018093CE001BC080910C018093CE00E2
S113015016C080910B018093CE0011C080912B01B9
S11301608823A1F090910A01977090930A01880F57
S1130170880F880F892B8093CE0010922B018091D9
S113018009018F5F80930901873018F081E0809323
S1130190090108951F920F920FB60F9211248F93A5
S11301A09F939091C600892F8770823089F028F43C
S11301B0882341F0813049F013C0833061F08430EA
S11301C069F00EC0909334010BC090930E0108C0E7
S11301D090930D0105C090930C0102C090930B0104
S11301E09F918F910F900FBE0F901F9018951092B2
S11301F02701109210011092110110921201109215
S113020013011092230110922401109225011092DF
S113021026011092B200E1EBF0E09081987F908388
S113022080932B01089560392FE5720721E082073E
S1130230910551F174F4643E27E572078105910537
S113024009F448C0683C2FEA720781059105B9F0AA
S11302502FC060322FEB720722E082079105F1F084
S113026060342EE7720725E082079105E1F06835D6
S11302702FE0720722E082079105D1F40AC068E6F4
S113028072E480E090E0089568EE70E880E090E029
S1130290089560E87BEB80E090E0089560E372EFFE
S11302A080E090E0089568E572E981E090E00895C7
S11302B097D520EA3AEA46EA53E422D620E030E031
S11302C04AE754E4F2D420E030E44CE155E489D424
S11302D054C5089560E177E280E090E00895CF92FC
S11302E0DF92EF92FF92CF936B017C01C42F81E0E8
S11302F0809327011092290110921001109211018C
S11303001092120110921301C701B6018CDFC61AB4
S1130310D70AE80AF90AC0922301D0922401E09294
S11303202501F0922601CC2321F082E080932B0159
S113033003C083E080932B011092B200E1EBF0E064
S1130340808187608083CF91FF90EF90DF90CF9082
S11303500895CF92DF92EF92FF928091B2008A3596
S113036008F459C01092B20080912C0190E0855895
S11303709109BC0122F466277727681B790B072EA5
S1130380000C880B990B2CD59B01AC012AD420E0DE
S113039030E040EA50E4B4D52091100130911101CD
S11303A040911201509113011CD46B017C016093A4
S11303B010017093110180931201909313016091C5
S11303C0230170912401809125019091260108D583
S11303D09B01AC01C701B6018FD58823F4F080914D
S11303E01B01882349F041E068EC7FEA80E090E05B
S11303F076DF10921B0103C081E090E0F8DE1092DA
S113040028011092160110921701109218011092EF
S1130410190181E003C080E001C080E0FF90EF900B
S1130420DF90CF90089581E08093220116BC85E08F
S113043085BD10921F0110921E01089585B58B7F12
S113044085BD85B58E7F85BD16BC10921F011092A7
S11304501E010895109285001092840085E0809317
S113046081000895CF92DF92EF92FF920F931F9332
S113047081E080931B011092080180932701109260
S1130480100110921101109212011092130164EEE6
S113049077E580E090E0C7DE04EE17E520E030E089
S11304A068017901C61AD70AE80AF90AC092230139
S11304B0D0922401E0922501F0922601E1EBF0E0D4
S11304C08081876080838BE080932B01C3DF1F9141
S11304D00F91FF90EF90DF90CF900895E1E8F0E066
S11304E080818B7F808380818E7F808310928500C2
S11304F01092840008951092950010929400109226
S113050015011092140185E0809391000895809163
S113051006019091070101979093070180930601CA
S11305202AE020932B011816190624F081E0809309
S11305302A010895E0CF0895E1E9F0E080818B7FFE
S1130540808380818E7F8083109295001092940026
S1130550109215011092140108958091310190E0D8
S11305602091040130910501281739072CF180915D
S1130570160190911701A0911801B09119018037CB
S11305809141A140B105C4F080910801811108C0D6
S113059013C040E060E47EE785E090E0A0CE0895DB
S11305A061DF109228011092160110921701109227
S11305B0180110921901089580912701882349F3A5
S11305C0089580913301813059F480912201811181
S11305D01FC00CC080912201882389F080E0089517
S11305E0809132018130B1F380E0089581E08093FD
S11305F0210119DF8CE080932B0181E0089581E0D3
S11306008093200110DF8CE080932B0181E008951A
S11306108091320180E00895CF93C0912201CC23D0
S113062009F457C086B5843B08F450C016BC8091C9
S11306301E0190911F01019690931F0180931E014A
S1130640C2970CF445C010922201F8DEC09121013A
S1130650CC23E1F01092210148D56AEA70E0D7D4A6
S113066028EE33E0829FB001839F700D929F700D3E
S11306701124CB01770FAA0BBB0BBC01CD01605A2F
S113068075418F4F9F4F40E02ADE23C0C091200167
S1130690CC23F9F01092200128D56AEA70E0B7D48F
S11306A028EE33E0829FB001839F700D929F700DFE
S11306B01124CB01770FAA0BBB0BBC01CD01605AEF
S11306C075418F4F9F4F41E00ADE03C0C0E001C077
S11306D0C0E08C2FCF91089580912F01882351F190
S11306E08091160190911701A0911801B091190100
S11306F0803E22E2920722E0A207B1050CF046C038
S113070020912701211105C041E050E060E070E034
S113071004C046E050E060E070E0840F951FA61F1F
S1130720B71F8093160190931701A0931801B093FB
S113073019012CC08091160190911701A091180104
S1130740B091190120912701211105C044E050E026
S113075060E070E004C04CE050E060E070E0841BB6
S1130760950BA60BB70B4AF08093160190931701D3
S1130770A0931801B093190109C0109216011092A8
S11307801701109218011092190108958091160111
S113079090911701A0911801B091190180379141EE
S11307A0A140B1053CF080912801811103C081E092
S11307B080932801089580912D01813051F4809116
S11307C01A01811116C00BC080911A0181110DC04C
S11307D0089580912D018823B9F380E0089581E084
S11307E080931A0194DE81E0089510921A0180E04A
S11307F0089580912D018823C1F380E008958091AC
S11308008400909185008035964438F180911C01D4
S113081090911D01019690931D0180931C011092EB
S113082085001092840080911C0190911D018130FB
S1130830910539F485E080932B0110921B0181E02E
S11308400895049761F481E08093080147DE1092D3
S11308501D0110921C0180E0089580E0089580E05D
S11308600895809194009091950080359644A8F065
S113087010929500109294008091140190911501AA
S113088001969093150180931401059744F054DE6A
S113089087E080932B0181E0089580E0089580E053
S11308A0089580913101833030F4809127018823A9
S11308B021F080E0089580E0089517D4482F417016
S11308C060E878E381E090E00ADD81E00895F8943F
S11308D020913401822F90E0AC01559547955595B0
S11308E0479555954795477040932E01082E892FBB
S11308F0000C881F990B000C881F991F817080932E
S11309002D01221F2227221F20932F0180910E01E7
S11309108695869586958093310180910D01869503
S1130920869586958093300180910C0186958695F5
S1130930869580932C0120910B01822F90E04091A9
S11309402C01BC01660F771F660F771F362F307E90
S1130950342B30932C01082E892F000C881F990BFF
S1130960000C881F991F817080933301221F222756
S1130970221F20933201789408959F92AF92BF92E0
S1130980CF92DF92EF92FF920F931F93CF93DF9357
S11309908BEF84B98FEF87B978941092C50087E7FD
S11309A08093C400E1ECF0E080E1808396E09093D2
S11309B0C2008081806880831092CD0089E080939A
S11309C0CC0088E08093C9009093CA007EDB41E0AC
S11309D060E573EC80E090E082DCC1E06CC077DF1E
S11309E084DB83B190E09595879595958795892BC0
S11309F009F033C071DE8091160190911701A09126
S1130A001801B091190180379141A140B10534F02A
S1130A1080912801811102C0C0932801CCDE81118C
S1130A204AC01FDF811147C0EADE811144C0C9DD1D
S1130A30811141C0F1DD81113EC033DF81113BC022
S1130A4080912701882319F084DC811134C08091BE
S1130A502801882381F181DD2EC03EDE80911601BC
S1130A6090911701A0911801B0911901803791411B
S1130A70A140B10534F080912801811102C0C093D6
S1130A80280199DE811117C0ECDE811114C0B7DE94
S1130A90811111C096DD81110EC0BEDD81110BC024
S1130AA080912701882319F054DC811104C08091BE
S1130AB02801811152DD80912A01882309F48FCF06
S1130AC0C9DC8DE080932B01C12C04E910E0C4E85B
S1130AD0D0E00F2EF4E19F2EF02D0F2EF9E0DF2E43
S1130AE0F02D6894AA24A3F8FF24F3940F2EF3E0C6
S1130AF0BF2EF02D6894EE24E1F840C0F6DAE7DE6C
S1130B0080913301813009F043C08091210181112A
S1130B104EC039C08091200181114FC03EC08091E8
S1130B202001882339F0C11005C0F0922B01E3DCC9
S1130B30CF2C24C0F801808191818035964418F02F
S1130B40A0922B01F9DC888199818A3C9840B0F00D
S1130B501982188280911C0190911D010196909335
S1130B601D0180931C01049719F0D0922B0106C03B
S1130B7090922B0110921D0110921C0180912A0168
S1130B808111BCCF1FC0F0922101E0922B01F6CF5E
S1130B9080913201813031F4BDCFF0922001B092C6
S1130BA02B01ECCF809121018111B9CFC3CF80916A
S1130BB03201813009F0B3CFADCF80912101811191
S1130BC0B2CFB8CF80E090E0DF91CF911F910F9129
S1130BD0FF90EF90DF90CF90BF90AF909F900895DB
S1130BE05058BB27AA270ED04DC13ED130F043D177
S1130BF020F031F49F3F11F41EF433C10EF4E0955C
S1130C00E7FB29C1E92F4FD180F3BA1762077307B5
S1130C108407950718F071F49EF567C10EF4E0950A
S1130C200B2EBA2FA02D0B01B90190010C01CA01A2
S1130C30A0011124FF27591B99F0593F50F4503E4D
S1130C4068F11A16F040A22F232F342F4427585F3F
S1130C50F3CF469537952795A795F0405395C9F757
S1130C607EF41F16BA0B620B730B840BBAF091500F
S1130C70A1F0FF0FBB1F661F771F881FC2F70EC0AE
S1130C80BA0F621F731F841F48F487957795679581
S1130C90B795F7959E3F08F0B3CF9395880F08F06A
S1130CA09927EE0F9795879508950CD0EBC0E3D064
S1130CB040F0DAD030F021F45F3F19F0CCC051118C
S1130CC015C1CFC0F0D098F39923C9F35523B1F3DC
S1130CD0951B550BBB27AA2762177307840738F0A7
S1130CE09F5F5F4F220F331F441FAA1FA9F333D006
S1130CF00E2E3AF0E0E830D091505040E695001CBA
S1130D00CAF729D0FE2F27D0660F771F881FBB1F75
S1130D10261737074807AB07B0E809F0BB0B802D4F
S1130D20BF01FF2793585F4F2AF09E3F510568F09B
S1130D3092C0DCC05F3FECF3983EDCF38695779578
S1130D406795B795F7959F5FC9F7880F911D96959D
S1130D50879597F90895E1E0660F771F881FBB1FF9
S1130D60621773078407BA0720F0621B730B840BA6
S1130D70BA0BEE1F88F7E095089504D06894B1117A
S1130D80B5C0089598D088F09F5790F0B92F99274F
S1130D90B751A0F0D1F0660F771F881F991F1AF082
S1130DA0BA95C9F712C0B13081F09FD0B1E008956F
S1130DB09CC0672F782F8827B85F39F0B93FCCF3F0
S1130DC0869577956795B395D9F73EF49095809578
S1130DD0709561957F4F8F4F9F4F0895E89409C098
S1130DE097FB3EF490958095709561957F4F8F4F5A
S1130DF09F4F9923A9F0F92F96E9BB279395F69570
S1130E00879577956795B795F111F8CFFAF4BB0FED
S1130E1011F460FF1BC06F5F7F4F8F4F9F4F16C051
S1130E20882311F096E911C0772321F09EE8872FDB
S1130E30762F05C0662371F096E8862F70E060E097
S1130E402AF09A95660F771F881FDAF7880F969510
S1130E50879597F9089597F99F6780E870E060E0B7
S1130E6008959FEF80EC089500240A94161617063F
S1130E7018060906089500240A9412161306140687
S1130E8005060895092E0394000C11F4882352F0EA
S1130E90BB0F40F4BF2B11F460FF04C06F5F7F4FA2
S1130EA08F4F9F4F089557FD9058440F551F59F089
S1130EB05F3F71F04795880F97FB991F61F09F3F43
S1130EC079F087950895121613061406551FF2CF6C
S1130ED04695F1DF08C0161617061806991FF1CFBC
S1130EE086957105610508940895E894BB276627E3
S1130EF07727CB0197F9089566D008F48FEF08950A
S1130F000BD0C0CFB1DF28F0B6DF18F0952309F07D
S1130F10A2CFA7CF1124EACFC6DFA0F3959FD1F3C8
S1130F20950F50E0551F629FF001729FBB27F00D93
S1130F30B11D639FAA27F00DB11DAA1F649F6627E8
S1130F40B00DA11D661F829F2227B00DA11D621F37
S1130F50739FB00DA11D621F839FA00D611D221FF1
S1130F60749F3327A00D611D231F849F600D211DD5
S1130F70822F762F6A2F11249F5750408AF0E1F078
S1130F8088234AF0EE0FFF1FBB1F661F771F881FC1
S1130F9091505040A9F79E3F510570F05CCFA6CF09
S1130FA05F3FECF3983EDCF3869577956795B795AC
S1130FB0F795E7959F5FC1F7FE2B880F911D9695D6
S1130FC0879597F90895990F0008550FAA0BE0E843
S1130FD0FEEF16161706E807F907C0F012161306F7
S1130FE0E407F50798F0621B730B840B950B39F437
S1130FF00A2661F0232B242B252B21F408950A269D
S113100009F4A140A6958FEF811D811D089597FBDA
S1131010072E16F4009406D077FD08D00BD007FCF9
S113102005D03EF4909581959F4F089570956195F4
S11310307F4F0895AA1BBB1B51E107C0AA1FBB1F0A
S1131040A617B70710F0A61BB70B881F991F5A9550
S1131050A9F780959095BC01CD0108958F929F9238
S1131060AF92BF92CF92DF92EF92FF92CF93DF9332
S1131070EC01688179818A819B8161157105810503
S1131080910521F464E279ED8BE597E02DE133EFEE
S113109041E050E038D049015A019B01AC01A7EA74
S11310A0B1E44DD06B017C01ACEEB4EFA501940129
S11310B052D0DC01CB018C0D9D1DAE1DBF1DB7FFB1
S11310C003C00197A109B04888839983AA83BB838D
S11310D09F77DF91CF91FF90EF90DF90CF90BF90FB
S11310E0AF909F908F900895B9CF80E091E0B6CFF4
S11310F0A0E0B0E08093000190930101A09302016D
S1131100B09303010895052E97FB16F400940FD0B5
S113111057FD05D024D007FC02D046F408C05095F2
S11311204095309521953F4F4F4F5F4F08959095CF
S11311308095709561957F4F8F4F9F4F089531D063
S1131140A59F900DB49F900DA49F800D911D112417
S11311500895B7FFF4CFF3DF821B930B0895A1E248
S11311601A2EAA1BBB1BFD010DC0AA1FBB1FEE1F1D
S1131170FF1FA217B307E407F50720F0A21BB30B68
S1131180E40BF50B661F771F881F991F1A9469F7E4
S113119060957095809590959B01AC01BD01CF0140
S11311A00895A29FB001B39FC001A39F700D811D3C
S11311B01124911DB29F700D811D1124911D08955C
S10711C0F894FFCFCD
S11311C401000000140003000101050403020100EE
S9030000FC
