S02100004D616C736F6B6E696E6773656E686574656E5F365F322836292E73726563E9
S113000045C0000060C000005EC000005CC000008D
S11300105AC0000058C0000056C0000054C0000080
S113002052C0000050C000004EC000004CC0000090
S11300304AC0000048C0000046C0000044C00000A0
S113004042C0000040C000003EC000003CC00000B0
S113005094C0000038C0000036C0000034C0000066
S113006032C0000030C000002EC000002CC00000D0
S11300702AC0000028C0000026C0000024C00000E0
S113008022C0000020C000001EC0000011241FBEBA
S1130090CFEFD0E4DEBFCDBF11E0A0E0B1E0E8EEE9
S11300A0F3E000E00BBF02C007900D92A830B10747
S11300B0D9F721E0A8E0B1E001C01D92A931B2074F
S11300C0E1F7B1D08FC19CCF57988FEF93EB019795
S11300D0F1F700C0000089B190E0880F892F881FD4
S11300E0990B892BC1F308958091C80085FF44C002
S11300F0809102018330B1F028F4813049F08230DC
S113010061F030C08530C1F090F08630D1F02AC063
S1130110809118018093CE0025C0809107018093BF
S1130120CE0020C0809106018093CE001BC0809138
S113013005018093CE0016C0809104018093CE0007
S113014011C080910F018823A1F090910301977051
S113015090930301880F880F880F892B8093CE001A
S113016010920F01809102018F5F8093020187300A
S113017018F081E08093020108951F920F920FB648
S11301800F9211248F939F939091C600892F8770AB
S1130190823089F028F4882341F0813049F013C07B
S11301A0833061F0843069F00EC0909318010BC065
S11301B09093070108C09093060105C09093050130
S11301C002C0909304019F918F910F900FBE0F90E6
S11301D01F901895109285001092840085E08093FA
S11301E081000895109295001092940010920A01D3
S11301F01092090185E08093910008958091000197
S113020090910101019790930101809300011816C8
S1130210190624F081E080930E0108958AE080930A
S11302200F01E0CF08950F931F93CF93DF938BEFCC
S113023084B98FEF87B978941092C50087E78093CB
S1130240C400E1ECF0E080E1808396E09093C2008A
S11302508081806880831092CD0089E08093CC00F7
S113026088E08093C9009093CA002EDF84E08093D5
S11302700F01C1E072C0F89420911801822F90E020
S1130280AC015595479555954795559547954770B4
S113029040931201082E892F000C881F990B000C23
S11302A0881F991F817080931101221F2227221F0A
S11302B020931301809107018695869586958093F6
S11302C0150180911501811102C0409A01C0409826
S11302D08091060186958695869580931401809178
S11302E005018695869586958093100120910401D9
S11302F0822F90E040911001BC01660F771F660FBA
S1130300771F362F307E342B30931001082E892F1F
S1130310000C881F990B000C881F991F8170809313
S11303201701221F2227221F209316017894DCDE56
S113033083B190E09595879595958795892B69F07C
S1130340809111018130D1F580910B0181113EC062
S11303502FC080910B01811136C080910E0188233A
S113036009F489CF37DFC4E8D0E019E004E11BC009
S1130370BBDE888199818A3C9840A8F01982188252
S113038080910C0190910D01019690930D01809341
S11303900C0110930F01049731F400930F01109294
S11303A00D0110920C0180910E018111E1CF13C057
S11303B0C0930801C0930B0121DFCFCF80911101BD
S11303C0882339F2CACF10920B01C7CF8091110153
S11303D08823C9F3C2CF80E090E0DF91CF911F91D1
S10B03E00F910895F894FFCF7A
S10B03E80300010504030201F6
S9030000FC
