S01C000053656E736F72656E686574656E5F365F322833292E73726563FD
S113000045C0000060C000005EC000005CC000008D
S11300105AC0000058C0000056C0000054C0000080
S113002052C0000050C000004EC000004CC0000090
S11300304AC0000048C0000046C0000044C00000A0
S113004042C0000040C000003EC000003CC00000B0
S11300503AC0000038C0000037C0000034C00000BF
S113006079C0000030C000002EC000002CC0000089
S11300702AC0000028C0000026C0000024C00000E0
S113008022C0000020C000001EC0000011241FBEBA
S1130090CFEFD0E4DEBFCDBF11E0A0E0B1E0E8E3F4
S11300A0FAE000E00BBF02C007900D92AE30B1073A
S11300B0D9F721E0AEE0B1E001C01D92A832B20749
S11300C0E1F722D3B7C49CCF1F920F920FB60F92C1
S11300D011248F93F894809104018330A9F028F4BB
S11300E0813041F0823059F01DC0843091F0853068
S11300F0A9F018C0809123018093C60013C0809199
S113010009018093C6000EC0809108018093C60047
S113011009C0809107018093C60004C08091060144
S11301208093C600809104018F5F863018F4809319
S1130130040103C081E08093040178948F910F90AF
S11301400FBE0F901F901895ECE7F0E08081807E41
S1130150808308951F920F920FB60F9211240BB64D
S11301600F922F933F934F935F936F937F938F934C
S11301709F93AF93BF93EF93FF9380917800209167
S1130180790090E0922B20910501213029F120F093
S1130190223009F446C060C0969587959695879558
S11301A0382F330F330F330F209107012770232B80
S11301B020930701969587959695879588739091D6
S11301C00601977C892B80930601BEDFECE7F0E003
S11301D080818160808340C0409106014F7B909371
S11301E027018093260121E030E060910C01709199
S11301F00D018617970710F420E030E000243695AF
S113020027950794369527950794322F202D242B74
S11302102093060199DFECE7F0E08081826080831F
S11302201BC0409106014F779093250180932401D0
S113023021E030E060910A0170910B018617970765
S113024010F420E030E03695322F22273795279599
S1130250242B2093060178DF809105018F5F833082
S113026018F48093050103C0109205016DDFEAE7DD
S1130270F0E0808180648083FF91EF91BF91AF9122
S11302809F918F917F916F915F914F913F912F91AA
S11302900F900BBE0F900FBE0F901F9018951092E9
S11302A0B200109216011092150108958091110167
S11302B0811109C081E080931101299AF0DF8091B6
S11302C01101882359F0809115019091160102972C
S11302D029F481E0809310012998E1CF0895809159
S11302E01101811109C081E0809311012B9AD7DF9C
S11302F080911101882359F0809115019091160184
S1130300029729F481E0809310012B98C8CF0895B7
S113031080911501909116019C01220F331F820FC9
S1130320931F880F991F880F991F64E670E05BD3B1
S1130330072E000C880B990BCAD29B01AC0130D25A
S113034093D26D3221E0720714F4CB01089580E05A
S113035090E0089580910E01811134C080911001C4
S1130360882361F180910F01811128C0189908C078
S113037025C080910F01882329F1189B05C0089599
S113038081E080930F011AC0C3DF809314019DECB8
S1130390899F812D112486958695869580931301D6
S11303A0880F880F880F909109019770892B80938B
S11303B0090175DF81E080930E0108958091100199
S11303C08111D7CF089580910E01811130C08091A1
S11303D01001882341F180910F01811124C01A99E1
S11303E008C021C080910F01882309F11A9B05C020
S11303F0089581E080930F0116C08ADF6AE070E0FF
S1130400F2D260931201660F660F660F80910801A5
S11304108770682B6093080142DF81E080930E01AE
S1130420809300010895809110018111DBCF08951C
S1130430DC01FB019C91808198130EC011969C9164
S11304401197818198130AC081E012962C919281B0
S1130450291729F080E0089580E0089580E0089548
S113046080918400909185008133974068F0809159
S11304701701909118010196909318018093170128
S113048010928500109284008091170190911801B8
S1130490883C910511F41E9970C08091210181114D
S11304A09BC01E9B6DC093C01E9B28C080911701EA
S11304B09091180144970CF073C020C080912101E1
S11304C0882311F11E9978C01DC0E0911901F091A3
S11304D01A01E45EFE4F81E0808307C0E0911901B8
S11304E0F0911A01E45EFE4F1082809119019091FF
S11304F01A01019690931A018093190180912101A8
S1130500882311F01E9960C08091190190911A01FD
S1130510039709F066C06CE171E081E091E088DF47
S1130520882319F010921F0103C081E080931F01FA
S11305301092200110921A011092190110921801C0
S113054010921701ECE1F1E092818081982B818176
S1130550880F892B80931B01880F880F880F909137
S11305602301977C892B8093230190911F01992368
S1130570C1F1806880932301089510921F018DCFEB
S113058010928500109284001092180110921701A5
S113059081E08093210180912001811193CF84CF48
S11305A081E08093200110921A0110921901809128
S11305B021018111A7CF089580911701909118010D
S11305C008970CF082CF8ACF109221019DCF8091A1
S11305D02001811173CF92CF8091200181116ECFC0
S11305E063CF08958091940090919500803A9C483F
S11305F098F02E9A2C9A80919400909195008A3AC2
S11306009C4850F02C98E1E9F0E08081887F808359
S1130610109295001092940083B185FB882780F98D
S113062080932201813059F4809123018064809366
S11306302301E1E9F0E08081856080830895809161
S113064023018F7B8093230108958091B200873E1C
S113065078F098B182E0892788B91092B20080912D
S1130660150190911601019690931601809315013E
S113067080910001882339F080911001811101C01B
S113068015DE68DE06C080911001811101C027DEED
S11306909ADE80910E01882371F08091150190916A
S11306A01601019741F41092100110921101109259
S11306B00F0110920E0108951EC083B190E0880FBF
S11306C0892F881F990B892BB1F4F8948091260106
S11306D090912701885C910990930D0180930C01FE
S11306E08091240190912501885C910990930B01DC
S11306F080930A01789489B190E0880F892F881F2C
S1130700990B892BD1F2089557988AE184B987B15E
S1130710836087B97894E1EBF0E080818260808324
S11307201092B200EAE7F0E08081806880838081E3
S113073087608083808188608083ACE7B0E08C919F
S113074081608C931092C50087E78093C400A1EC6C
S1130750B0E088E08C9386E08093C2008C91806442
S11307608C932C9A8FEF93EB0197F1F700C0000064
S11307702C98A1E8B0E08C9181608C938081806496
S113078080839ADF1092C6006BDE2CDF5EDF8091DF
S113079014018A3010F0409AF7CF4098F5CF5058A2
S11307A0BB27AA270ED0E5C0D6D030F0DBD020F08E
S11307B031F49F3F11F41EF4CBC00EF4E095E7FB37
S11307C0C1C0E92FE7D080F3BA1762077307840723
S11307D0950718F071F49EF5FFC00EF4E0950B2E0A
S11307E0BA2FA02D0B01B90190010C01CA01A0017F
S11307F01124FF27591B99F0593F50F4503E68F1DA
S11308001A16F040A22F232F342F4427585FF3CF1A
S1130810469537952795A795F0405395C9F77EF4EB
S11308201F16BA0B620B730B840BBAF09150A1F034
S1130830FF0FBB1F661F771F881FC2F70EC0BA0FBA
S1130840621F731F841F48F4879577956795B79542
S1130850F7959E3F08F0B3CF9395880F08F099273A
S1130860EE0F97958795089504D06894B111B5C09B
S1130870089598D088F09F5790F0B92F9927B751D1
S1130880A0F0D1F0660F771F881F991F1AF0BA9550
S1130890C9F712C0B13081F09FD0B1E008959CC077
S11308A0672F782F8827B85F39F0B93FCCF3869546
S11308B077956795B395D9F73EF4909580957095A3
S11308C061957F4F8F4F9F4F0895E89409C097FB20
S11308D03EF490958095709561957F4F8F4F9F4F13
S11308E09923A9F0F92F96E9BB279395F695879557
S11308F077956795B795F111F8CFFAF4BB0F11F41A
S113090060FF1BC06F5F7F4F8F4F9F4F16C08823C0
S113091011F096E911C0772321F09EE8872F762FF6
S113092005C0662371F096E8862F70E060E02AF037
S11309309A95660F771F881FDAF7880F9695879523
S113094097F9089597F99F6780E870E060E008954B
S11309509FEF80EC089500240A94161617061806D3
S11309600906089500240A941216130614060506AF
S11309700895092E0394000C11F4882352F0BB0F40
S113098040F4BF2B11F460FF04C06F5F7F4F8F4FA3
S11309909F4F089557FD9058440F551F59F05F3FDE
S11309A071F04795880F97FB991F61F09F3F79F08D
S11309B087950895121613061406551FF2CF46950F
S11309C0F1DF08C0161617061806991FF1CF869591
S11309D07105610508940895E894BB276627772775
S11309E0CB0197F9089597FB072E16F4009406D0CF
S11309F077FD08D00BD007FC05D03EF49095819587
S1130A009F4F0895709561957F4F0895AA1BBB1B56
S1130A1051E107C0AA1FBB1FA617B70710F0A61BFA
S1130A20B70B881F991F5A95A9F780959095BC011B
S10B0A30CD010895F894FFCFF5
S1110A3801010100010104030201F401200385
S9030000FC
