S015000053656E736F72656E686574656E2E73726563AE
S113000045C0000060C000005EC000005CC000008D
S11300105AC0000058C0000056C0000054C0000080
S113002052C0000050C000004EC000004CC0000090
S11300304AC0000048C0000046C0000044C00000A0
S113004042C0000040C000003EC000003CC00000B0
S11300503AC0000038C0000037C0000034C00000BF
S1130060B0C0000030C000002EC000002CC0000052
S11300702AC0000028C0000026C0000024C00000E0
S113008022C0000020C000001EC0000011241FBEBA
S1130090CFEFD0E4DEBFCDBF11E0A0E0B1E0E6E4F5
S11300A0F3E000E00BBF02C007900D92AC30B10743
S11300B0D9F721E0ACE0B1E001C01D92AE30B20747
S11300C0E1F716D13EC19CCF1F920F920FB60F924B
S11300D011240BB60F928F939F93EF93FF93F89491
S11300E0E1ECF0E080818E7F808380910001833099
S11300F029F128F4813041F0823099F045C08430F0
S113010051F18530A9F140C0E1ECF0E0908180919B
S11301100D018170892B808380910C018093C6002E
S113012033C0E1ECF0E0908180910B018170892B68
S1130130808380910A018093C60026C0E1ECF0E040
S11301409081809109018170892B808380910801BD
S11301508093C60019C0E1ECF0E090818091070122
S11301608170892B8083809106018093C6000CC026
S1130170E1ECF0E09081809105018170892B80830E
S1130180809104018093C600809100018F5F8630C6
S113019018F48093000103C081E0809300017894F7
S11301A0FF91EF919F918F910F900BBE0F900FBE17
S11301B00F901F901895ECE7F0E08081807E80839B
S11301C008951F920F920FB60F9211240BB60F923F
S11301D02F933F934F935F936F937F938F939F934B
S11301E0AF93BF93EF93FF938091780020917900B0
S11301F090E0922B20910101213059F018F0223027
S113020059F142C0D8DFECE7F0E08081816080835F
S11302103BC021E030E0409102015091030184177A
S1130220950710F420E030E0C9019695982F8827AF
S11302309795879520910C0130910D012F77282BEC
S1130240392B30930D0120930C01B5DFECE7F0E07E
S113025080818260808318C041E020910201309146
S113026003018217930708F440E080E090E0942FA4
S113027020910C0130910D013E7F822B932B9093A2
S11302800D0180930C0197DF809101018F5F833012
S113029018F48093010103C0109201018CDFEAE796
S11302A0F0E0808180648083FF91EF91BF91AF91F2
S11302B09F918F917F916F915F914F913F912F917A
S11302C00F900BBE0F900FBE0F901F90189580914A
S11302D00C0187FF02C0289A01C0289880910C0164
S11302E090910D0190FF02C0299A089529980895CC
S11302F08FEF84B97894EAE7F0E0808180688083A6
S1130300808184608083808188608083ACE7B0E0F2
S11303108C9181608C938081806480831092C5006D
S113032087E78093C400E1ECF0E08CE0808386E012
S11303308093C2008081806480831092C600C7DFEE
S1090340FECFF894FFCF8C
S10F03460101F4010400030002000100A6
S9030000FC
