S01D000053656E736F72656E686574656E5F365F32283130292E73726563CE
S113000045C0000060C000005EC000005CC000008D
S11300105AC0000058C0000056C0000054C0000080
S113002052C0000050C000004EC000004CC0000090
S11300304AC0000048C0000046C0000044C00000A0
S113004042C0000040C000003EC000003CC00000B0
S11300503AC0000038C0000037C0000034C00000BF
S113006079C0000030C000002EC000002CC0000089
S11300702AC0000028C0000026C0000024C00000E0
S113008022C0000020C000001EC0000011241FBEBA
S1130090CFEFD0E4DEBFCDBF11E0A0E0B1E0EEEBE6
S11300A0FAE000E00BBF02C007900D92A031B10747
S11300B0D9F721E0A0E1B1E001C01D92AB32B20753
S11300C0E1F7D6D3FAC49CCF1F920F920FB60F92CA
S11300D011248F93F894809104018330A9F028F4BB
S11300E0813041F0823059F01DC0843091F0853068
S11300F0A9F018C080910A018093C60013C08091B2
S113010009018093C6000EC0809108018093C60047
S113011009C0809107018093C60004C08091060144
S11301208093C600809104018F5F863018F4809319
S1130130040103C081E08093040178948F910F90AF
S11301400FBE0F901F901895ECE7F0E08081807E41
S1130150808308951F920F920FB60F9211240BB64D
S11301600F922F933F934F935F936F937F938F934C
S11301709F93AF93BF93EF93FF93F894809178008C
S11301802091790090E0922B789420910501213000
S113019029F120F0223009F446C060C09695879575
S11301A096958795382F330F330F330F209107011E
S11301B02770232B2093070196958795969587950D
S11301C0887390910601977C892B80930601BCDF8C
S11301D0ECE7F0E080818160808340C040910601BB
S11301E04F7B90932A018093290121E030E06091B4
S11301F00D0170910E018617970710F420E030E08E
S11302000024369527950794369527950794322F21
S1130210202D242B2093060197DFECE7F0E080816A
S1130220826080831BC0409106014F779093280120
S11302308093270121E030E060910B0170910C0163
S11302408617970710F420E030E03695322F2227E6
S113025037952795242B2093060176DF809105019D
S11302608F5F833018F48093050103C01092050159
S11302706BDFEAE7F0E0808180648083FF91EF9197
S1130280BF91AF919F918F917F916F915F914F91AA
S11302903F912F910F900BBE0F900FBE0F901F90A8
S11302A018951092B20010921A0110921901089533
S11302B080911501811109C081E080931501299A6B
S11302C0F0DF80911501882359F0809119019091F4
S11302D01A010A9729F481E0809314012998E1CF47
S11302E0089580911501811109C081E08093150161
S11302F02B9AD7DF80911501882359F08091190139
S113030090911A010A9729F481E0809314012B98A3
S1130310C8CF08950F931F93CF93DF9320911901B2
S113032030911A014AE2429FC001439F900D11246B
S11303306AE370E09BD3072E000C880B990B0AD359
S1130340062F172FD82FC92F20E030E040E753E4C1
S113035065D3181624F400E010E0D0E7C3E4602F5E
S1130360712F8D2F9C2FDF91CF911F910F910895A5
S113037080911201811167C080911401882331F0AA
S113038080911301811102C0189932C08091140127
S1130390882309F458C080911301882309F453C0B9
S11303A0189B2FC008958DEC689F612D11246695CC
S11303B0669566956F5F6093170109C08DEC689F21
S11303C0612D112466956695669560931701809159
S11303D01701982F990F990F990F80910901877030
S11303E0892B809309015DDF81E0809312010895D8
S11303F081E08093130155DF80911201882331F24B
S1130400089588DF79D26093180189E2689F812D6D
S1130410112482958F70962F24E6829F90191124BF
S11304208DEC989F812D1124869586958695880F4D
S1130430282F220F220F820F981B892F90E00597F7
S11304400CF0B1CFBBCF089580911201811165C02A
S113045080911401882309F45CC0809113018111F7
S113046058C01A9930C055C080911301882309F4EB
S113047054C01A9B2CC008958DEC689F612D1124E3
S11304806695669566956F5F6093160109C08DEC5D
S1130490689F612D11246695669566956093160193
S11304A080911601982F990F990F990F8091080147
S11304B08770892B80930801F4DE81E08093120118
S11304C080930001089581E08093130122C022DF0C
S11304D013D26093180189E2689F812D11248295BB
S11304E08F70962F24E6829F901911248DEC989F8B
S11304F0812D1124869586958695880F282F220FA5
S1130500220F820F981B892F90E005970CF0B4CF2F
S1130510BECF809114018111A7CF0895DC01FB01A6
S11305209C91808198130EC011969C9111978181A2
S113053098130AC081E012962C919281291729F010
S113054080E0089580E0089580E00895809184001B
S1130550909185008133974088F080911B019091A0
S11305601C01019690931C0180931B01109285003D
S11305701092840098B181E0892788B980911B0189
S113058090911C01883C910511F41E9976C08091CC
S113059025018111B9C01E9B8BC0B1C01E9B28C010
S11305A080911B0190911C0144970CF091C020C0D4
S11305B080912501882311F11E9996C01DC0E091F8
S11305C01D01F0911E01E05EFE4F81E0808307C0B3
S11305D0E0911D01F0911E01E05EFE4F10828091BA
S11305E01D0190911E01019690931E0180931D019F
S11305F080912501882311F01E997EC080911D01F0
S113060090911E01039709F084C060E271E081E0DB
S113061091E084DF882319F01092230103C081E064
S1130620809323011092240110921E0110921D0147
S113063010921C0110921B01E0E2F1E08081982FDE
S1130640990F990F8181880F892B9281892B80932F
S11306501F01982F990F990F990F80910A01877C98
S1130660892B90912301992321F0806880930A01BA
S113067008958F7780930A01089510922301E1E091
S1130680F1E08081982F990F990F8181880F892B30
S11306909281892B80931F01982F990F990F990F9D
S11306A080910A01877C892B8F7780930A016FCF11
S11306B0109285001092840010921C0110921B016C
S11306C081E08093250180912401811175CF66CF4B
S11306D081E08093240110921E0110921D018091EB
S11306E02501811189CF089580911B0190911C01EE
S11306F008970CF064CF6CCF109225017FCF8091C6
S11307002401811155CF74CF80912401811150CFE0
S113071045CF08958091940090919500803596443A
S113072048F0809111018F5F809311011092950020
S11307301092940080911101853008F12C9A8091D7
S11307401001811107C0109295001092940081E06D
S1130750809310018091940090919500883E93407D
S113076070F02C98E1E9F0E08081887F808310921A
S1130770950010929400109211011092100183B10F
S113078085FB882780F980932601813059F4809174
S11307900A01806480930A01E1E9F0E080818560C8
S11307A08083089580910A018F7B80930A010895C4
S11307B08091B200893B78F098B182E0892788B9AA
S11307C08091190190911A01019690931A018093D6
S11307D019011092B20080910001882339F08091B0
S11307E01401811101C064DDC3DD06C080911401D0
S11307F0811101C076DD28DE80911201882379F011
S11308008091190190911A01883E934041F410920D
S113081014011092150110921301109212010895FF
S11308201EC083B190E0880F892F881F990B892BF4
S1130830B1F4F8948091290190912A01885C91097E
S113084090930E0180930D018091270190912801CE
S1130850885C910990930C0180930B01789489B181
S113086090E0880F892F881F990B892BD1F2089566
S113087057988AE184B987B1836087B97894E1EBAA
S1130880F0E08081816080831092B200EAE7F0E0BA
S11308908081806880838081876080838081886094
S11308A08083ACE7B0E08C9181608C931092C5009A
S11308B087E78093C400A1ECB0E088E08C9386E0E5
S11308C08093C2008C9180648C932C9A8FEF93EB6D
S11308D00197F1F700C000002C98A1E8B0E08C91DA
S11308E081608C938081806480839ADF1092C6003B
S11308F02DDE10DF5DDFFCCF70D088F09F5790F0C5
S1130900B92F9927B751A0F0D1F0660F771F881F30
S1130910991F1AF0BA95C9F712C0B13081F077D097
S1130920B1E0089574C0672F782F8827B85F39F035
S1130930B93FCCF3869577956795B395D9F73EF48F
S113094090958095709561957F4F8F4F9F4F089537
S1130950E89409C097FB3EF4909580957095619555
S11309607F4F8F4F9F4F9923A9F0F92F96E9BB270B
S11309709395F695879577956795B795F111F8CF87
S1130980FAF4BB0F11F460FF1BC06F5F7F4F8F4FF2
S11309909F4F16C0882311F096E911C0772321F0E8
S11309A09EE8872F762F05C0662371F096E8862F80
S11309B070E060E02AF09A95660F771F881FDAF7D7
S11309C0880F9695879597F9089557FD9058440F89
S11309D0551F59F05F3F71F04795880F97FB991F9A
S11309E061F09F3F79F08795089512161306140657
S11309F0551FF2CF4695F1DF08C0161617061806E4
S1130A00991FF1CF86957105610508940895E894BE
S1130A10BB2766277727CB0197F9089503D008F4FD
S1130A208FEF0895990F0008550FAA0BE0E8FEEF29
S1130A3016161706E807F907C0F012161306E4079E
S1130A40F50798F0621B730B840B950B39F40A2697
S1130A5061F0232B242B252B21F408950A2609F475
S1130A60A140A6958FEF811D811D089597FB072E48
S1130A7016F4009406D077FD08D00BD007FC05D0FF
S1130A803EF4909581959F4F0895709561957F4FA1
S1130A900895AA1BBB1B51E107C0AA1FBB1FA617C1
S1130AA0B70710F0A61BB70B881F991F5A95A9F713
S1110AB080959095BC01CD010895F894FFCF78
S1130ABE010101000101040302013090018A0200C8
S9030000FC
