:1000000045C0000060C000005EC000005CC0000091
:100010005AC0000058C0000056C0000054C0000084
:1000200052C0000050C000004EC000004CC0000094
:100030004AC0000048C0000046C0000044C00000A4
:1000400042C0000040C000003EC000003CC00000B4
:100050003AC0000038C0000037C0000034C00000C3
:1000600079C0000030C000002EC000002CC000008D
:100070002AC0000028C0000026C0000024C00000E4
:1000800022C0000020C000001EC0000011241FBEBE
:10009000CFEFD0E4DEBFCDBF11E0A0E0B1E0E2E2FF
:1000A000FAE000E00BBF02C007900D92AE30B1073E
:1000B000D9F721E0AEE0B1E001C01D92A732B2074E
:1000C000E1F721D3ACC49CCF1F920F920FB60F92D1
:1000D00011248F93F894809104018330A9F028F4BF
:1000E000813041F0823059F01DC0843091F085306C
:1000F000A9F018C0809122018093C60013C080919E
:1001000009018093C6000EC0809108018093C6004B
:1001100009C0809107018093C60004C08091060148
:100120008093C600809104018F5F863018F480931D
:10013000040103C081E08093040178948F910F90B3
:100140000FBE0F901F901895ECE7F0E08081807E45
:10015000808308951F920F920FB60F9211240BB651
:100160000F922F933F934F935F936F937F938F9350
:100170009F93AF93BF93EF93FF938091780020916B
:10018000790090E0922B20910501213029F120F097
:10019000223009F446C060C096958795969587955C
:1001A000382F330F330F330F209107012770232B84
:1001B00020930701969587959695879588739091DA
:1001C0000601977C892B80930601BEDFECE7F0E007
:1001D00080818160808340C0409106014F7B909375
:1001E00024018093230121E030E060910C017091A3
:1001F0000D018617970710F420E030E000243695B3
:1002000027950794369527950794322F202D242B78
:100210002093060199DFECE7F0E080818260808323
:100220001BC0409106014F779093240180932301D6
:1002300021E030E060910A0170910B018617970769
:1002400010F420E030E03695322F2227379527959D
:10025000242B2093060178DF809105018F5F833086
:1002600018F48093050103C0109205016DDFEAE7E1
:10027000F0E0808180648083FF91EF91BF91AF9126
:100280009F918F917F916F915F914F913F912F91AE
:100290000F900BBE0F900FBE0F901F9018951092ED
:1002A000B20010921501109214010895809111016D
:1002B000811109C081E080931101299AF0DF8091BA
:1002C0001101882351F0809114019091150102973A
:1002D00021F481E080931001299808958091110103
:1002E000811109C081E0809311012B9AD8DF8091A0
:1002F0001101882351F0809114019091150102970A
:1003000021F481E0809310012B98089580911401CD
:10031000909115019C01220F331F820F931F880FAC
:10032000991F880F991F64E670E052D3072E000CC6
:10033000880B990BC1D29B01AC0127D28AD26D32B6
:1003400021E0720714F4CB01089580E090E0089555
:1003500080910E01811130C080911001882331F00D
:1003600080910F01811102C018990BC0809110017A
:10037000882311F180910F018823F1F0189B0AC0A6
:10038000089581E080930F018ADF80910E01882318
:1003900069F30895BBDF80931301880F880F880FDE
:1003A000909109019770892B8093090178DF81E092
:1003B00080930E0110920001089580910E01811129
:1003C00030C080911001882331F080910F0181119C
:1003D00002C01A990BC080911001882311F18091FD
:1003E0000F018823F1F01A9B0AC0089581E08093E1
:1003F0000F0155DF80910E01882369F3089586DF90
:1004000080931201880F880F880F909108019770D0
:10041000892B8093080143DF81E080930E01809354
:1004200000010895DC01FB019C91808198130EC0AE
:1004300011969C911197818198130AC081E01296C0
:100440002C919281291729F080E0089580E0089589
:1004500080E00895809184009091850081339740D9
:1004600068F0809116019091170101969093170101
:1004700080931601109285001092840080911601DD
:1004800090911701883C910511F41E9970C08091DC
:10049000200181119BC01E9B6DC093C01E9B28C074
:1004A000809116019091170144970CF073C020C001
:1004B00080912001882311F11E9978C01DC0E09120
:1004C0001801F0911901E55EFE4F81E0808307C0BD
:1004D000E0911801F0911901E55EFE4F10828091C4
:1004E00018019091190101969093190180931801B8
:1004F00080912001882311F01E9960C0809118011D
:1005000090911901039709F066C06BE171E081E0F9
:1005100091E088DF882319F010921E0103C081E06A
:1005200080931E0110921F01109219011092180160
:100530001092170110921601EBE1F1E09281808197
:10054000982B8181880F892B80931A01880F880F3F
:10055000880F90912201977C892B809322019091A2
:100560001E019923C1F180688093220108951092A1
:100570001E018DCF109285001092840010921701F9
:100580001092160181E08093200180911F0181115A
:1005900093CF84CF81E080931F01109219011092B4
:1005A0001801809120018111A7CF08958091160133
:1005B0009091170108970CF082CF8ACF10922001FA
:1005C0009DCF80911F01811173CF92CF80911F0128
:1005D00081116ECF63CF0895809194009091950022
:1005E000803A9C4898F02E9A2C9A80919400909191
:1005F00095008A3A9C4850F02C98E1E9F0E080811F
:10060000887F8083109295001092940083B185FBBF
:10061000882780F980932101813099F42F9A809165
:10062000210120E4829FC0011124909122019F7B2F
:10063000892B80932201E1E9F0E08081856080834D
:100640000895809122018F7B809322012F98089535
:100650008091B200893B58F01092B2008091140151
:10066000909115010196909315018093140180914A
:100670000001882339F080911001811101C016DE3C
:1006800067DE06C080911001811101C027DE95DE72
:1006900080910E01882371F08091140190911501D1
:1006A000019741F4109210011092110110920F0164
:1006B00010920E0108958091250190912601AC01C0
:1006C0004456510980912301909124019C012456A4
:1006D000310910C083B190E0880F892F881F990BD2
:1006E000019741F450930D0140930C0130930B019D
:1006F00020930A0189B190E0880F892F881F990BF8
:10070000892B41F3089557988AE984B97894E1EBED
:10071000F0E08081816080831092B200CAE7D0E06F
:1007200088818068888388818460888388818860E4
:100730008883ECE7F0E08081816080831092C500BF
:1007400087E78093C400E1ECF0E088E0808386E0F6
:100750008093C2008081806480832C9A8FEF93EB1A
:100760000197F1F700C000002C98E1E8F0E08081EB
:1007700081608083A0DF1092C600888180648883B6
:1007800069DE2ADF65DFFCCF5058BB27AA270ED0D1
:10079000E5C0D6D030F0DBD020F031F49F3F11F42B
:1007A0001EF4CBC00EF4E095E7FBC1C0E92FE7D003
:1007B00080F3BA17620773078407950718F071F47E
:1007C0009EF5FFC00EF4E0950B2EBA2FA02D0B0165
:1007D000B90190010C01CA01A0011124FF27591B86
:1007E00099F0593F50F4503E68F11A16F040A22F8C
:1007F000232F342F4427585FF3CF469537952795FD
:10080000A795F0405395C9F77EF41F16BA0B620BFB
:10081000730B840BBAF09150A1F0FF0FBB1F661F42
:10082000771F881FC2F70EC0BA0F621F731F841F85
:1008300048F4879577956795B795F7959E3F08F0AB
:10084000B3CF9395880F08F09927EE0F979587956A
:10085000089504D06894B111B5C0089598D088F077
:100860009F5790F0B92F9927B751A0F0D1F0660F9C
:10087000771F881F991F1AF0BA95C9F712C0B130B7
:1008800081F09FD0B1E008959CC0672F782F882712
:10089000B85F39F0B93FCCF3869577956795B395F6
:1008A000D9F73EF490958095709561957F4F8F4F65
:1008B0009F4F0895E89409C097FB3EF4909580956A
:1008C000709561957F4F8F4F9F4F9923A9F0F92F16
:1008D00096E9BB279395F695879577956795B79594
:1008E000F111F8CFFAF4BB0F11F460FF1BC06F5F7A
:1008F0007F4F8F4F9F4F16C0882311F096E911C08C
:10090000772321F09EE8872F762F05C0662371F0AC
:1009100096E8862F70E060E02AF09A95660F771FC0
:10092000881FDAF7880F9695879597F9089597F9B4
:100930009F6780E870E060E008959FEF80EC089585
:1009400000240A94161617061806090608950024AE
:100950000A9412161306140605060895092E039428
:10096000000C11F4882352F0BB0F40F4BF2B11F49C
:1009700060FF04C06F5F7F4F8F4F9F4F089557FDFB
:100980009058440F551F59F05F3F71F04795880FFD
:1009900097FB991F61F09F3F79F087950895121694
:1009A00013061406551FF2CF4695F1DF08C0161640
:1009B00017061806991FF1CF8695710561050894F1
:1009C0000895E894BB2766277727CB0197F9089508
:1009D00097FB072E16F4009406D077FD08D00BD0B5
:1009E00007FC05D03EF4909581959F4F0895709532
:1009F00061957F4F0895AA1BBB1B51E107C0AA1F39
:100A0000BB1FA617B70710F0A61BB70B881F991FAF
:100A10005A95A9F780959095BC01CD010895F89459
:020A2000FFCF06
:0E0A220001010100010104030201F401F401CD
:00000001FF
