S01A000053747972656E686574656E5F365F322831292E73726563C9
S11300005AC000007FC000007DC000007BC000001B
S113001079C0000077C0000075C0000073C0000004
S113002071C000006FC000006DC000006BC0000014
S113003069C0000067C0000065C0000063C0000024
S113004061C000005FC000005DC000005BC0000034
S11300505AC1000057C0000055C0000053C0000042
S113006051C000004FC000004DC000004BC0000054
S113007049C0000047C0000045C0000043C0000064
S113008041C000003FC000003DC000004C015301CE
S113009059015F01630167016C0171017501790107
S11300A0410141014101410141014101410141013C
S11300B041017F019E0111241FBECFEFD0E4DEBFBA
S11300C0CDBF11E0A0E0B1E0EEEBF5E000E00BBF46
S11300D002C007900D92A630B107D9F721E0A6E03F
S11300E0B1E001C01D92A930B207E1F710E0CBE501
S11300F0D0E003C02197FE0157D2CA35D107D1F70A
S1130100A6D05BC27DCF57988FEF93EB0197F1F7A1
S113011000C0000089B190E0880F892F881F990BD7
S1130120892BC1F30895E6E8F0E080819181209164
S1130130070130910801821B930B909389008093EF
S11301408800808191812091070130910801821BF0
S1130150930B90938B0080938A00089584B18F61F0
S113016084B985B1876085B90895E0E8F0E08081BD
S1130170826F8083E1E8F0E08081896180838091EF
S1130180030190910401E6E8F0E09183808380818B
S113019091819093890080938800808191819093CC
S11301A08B0080938A008AB180638AB984B1806AA3
S11301B084B90895DADFD2CF08959093080180932B
S11301C00701B1DF2D9A2F9A089583E090E0909370
S11301D002018093010180E090E0EFDF85B1876048
S11301E085B9089590930801809307019CDF2D98A9
S11301F02F9A0895909308018093070194DF2F9814
S11302002D9A08952C9A08952C98089580910101AF
S1130210909102010197909302018093010102974A
S113022009F42A988091010190910201019709F43F
S113023029988091010190910201892B09F4289851
S1130240089510920801109207016DCF08958FEF61
S113025084B978941092C50089E08093C400E1ECDD
S1130260F0E080E1808386E08093C2008081806832
S1130270808349DF9FDFC0E0DC2F11E0E0910601BD
S113028001C0ED2F8E2F90E0FC013197E431F10590
S1130290C0F7EA5BFF4F88C1C09306012C9A8EE237
S11302A099E08BDFEBCFC093060187E994E09ADFF6
S11302B0E5CFC093060187E994E09CDFDFCFC093CC
S11302C00601A0DFDBCFC09306019EDFD7CFC0932A
S11302D00601C0930001D2CFC09306011093000120
S11302E0CDCFC0930601ADDFC9CFC09306018EDF29
S11302F0C5CFC09306018ADFC0930001BFCFC0936E
S1130300060163DFBBCF1F920F920FB60F92112429
S11303108F938091C6008770853051F48091C60018
S113032086958695869580930601833009F42B9AE9
S11303308F910F900FBE0F901F901895609103013D
S113034070910401072E000C880B990B3ED020E01D
S113035030E040E05FE39DD005D0709308016093E6
S11303600701089504D06894B1118DC0089570D028
S113037088F09F5790F0B92F9927B751A0F0D1F08A
S1130380660F771F881F991F1AF0BA95C9F712C014
S1130390B13081F077D0B1E0089574C0672F782F21
S11303A08827B85F39F0B93FCCF386957795679580
S11303B0B395D9F73EF490958095709561957F4FEC
S11303C08F4F9F4F0895E89409C097FB3EF4909592
S11303D08095709561957F4F8F4F9F4F9923A9F01A
S11303E0F92F96E9BB279395F695879577956795A9
S11303F0B795F111F8CFFAF4BB0F11F460FF1BC0ED
S11304006F5F7F4F8F4F9F4F16C0882311F096E97F
S113041011C0772321F09EE8872F762F05C066232D
S113042071F096E8862F70E060E02AF09A95660FE6
S1130430771F881FDAF7880F9695879597F908959F
S113044057FD9058440F551F59F05F3F71F0479581
S1130450880F97FB991F61F09F3F79F08795089566
S1130460121613061406551FF2CF4695F1DF08C085
S1130470161617061806991FF1CF869571056105A2
S113048008940895E894BB2766277727CB0197F94A
S113049008950BD078C069D028F06ED018F0952359
S11304A009F05AC05FC01124EECFCADFA0F3959FB4
S11304B0D1F3950F50E0551F629FF001729FBB2747
S11304C0F00DB11D639FAA27F00DB11DAA1F649FF3
S11304D06627B00DA11D661F829F2227B00DA11DA6
S11304E0621F739FB00DA11D621F839FA00D611D2C
S11304F0221F749F3327A00D611D231F849F600D4D
S1130500211D822F762F6A2F11249F5750408AF085
S1130510E1F088234AF0EE0FFF1FBB1F661F771F11
S1130520881F91505040A9F79E3F510570F014C0A8
S1130530AACF5F3FECF3983EDCF3869577956795F9
S1130540B795F795E7959F5FC1F7FE2B880F911D2F
S11305509695879597F9089597F99F6780E870E0D5
S113056060E008959FEF80EC089500240A94161625
S1130570170618060906089500240A94121613068D
S1130580140605060895092E0394000C11F488231B
S113059052F0BB0F40F4BF2B11F460FF04C06F5F37
S11305A07F4F8F4F9F4F0895EE0FFF1F0024001CB5
S11105B00BBE0790F691E02D0994F894FFCF4E
S10905BE0103005C1200C1
S9030000FC
