:100000005BC0000080C000007EC000007CC000001B
:100010007AC0000078C0000076C0000074C0000004
:1000200072C0000070C000006EC000006CC0000014
:100030006AC0000068C0000066C0000064C0000024
:1000400062C0000060C000005EC000005CC0000034
:1000500099C1000058C0000056C0000054C0000004
:1000600052C0000050C000004EC000004CC0000054
:100070004AC0000048C0000046C0000044C0000064
:1000800042C0000040C000003EC000008B0264027D
:1000900068026C02700272027402760278027A02BE
:1000A0007C027F0284028A028A028A028A028A020F
:1000B0008A028A028802920211241FBECFEFD0E486
:1000C000DEBFCDBF11E0A0E0B1E0E6EAF7E000E07E
:1000D0000BBF02C007900D92A032B107D9F721E003
:1000E000A0E2B1E001C01D92A832B207E1F710E032
:1000F000CCE5D0E003C02197FE014AD3CB35D10730
:10010000D1F7C0D14EC37CCF57988FEF93EB0197B7
:10011000F1F700C0000089B190E0880F892F881F97
:10012000990B892BC1F3089580910B01882379F0F5
:10013000809196009091970020911E0130911F01AF
:10014000821B930B909399008093980008C0809134
:10015000960090919700909399008093980086B5AF
:10016000823E50F080912401909125010196909358
:1001700025018093240116BC8091260190912701CE
:10018000FC01EE0FFF1FE45FFE4F40815181209183
:1001900024013091250142175307B9F4109225012B
:1001A0001092240101968830910529F0909327013F
:1001B0008093260104C0109227011092260190918D
:1001C0000B0181E0892780930B010895E6E8F0E0B8
:1001D000808191812091220130912301821B930B18
:1001E00090938900809388008081918120912201E1
:1001F00030912301821B930B90938B0080938A0094
:1002000008951092C50029E02093C400E1ECF0E0CD
:1002100080E1808396E09093C20080818068808333
:100220001092CD002093CC0088E08093C900909379
:10023000CA00089584B18F6184B985B1876085B99A
:100240000895E0E8F0E08081826F8083E1E8F0E0EB
:100250008081896180838091090190910A01E6E89B
:10026000F0E09183808380819181909389008093D5
:1002700088008081918190938B0080938A008AB15D
:1002800080638AB9259A089A0895269AE0E9F0E0F1
:100290008081826F8083E1E9F0E0808189618083E1
:1002A00080911C0190911D01E6E9F0E0918380832B
:1002B00080819181909399008093980085B58260A8
:1002C00085BD08959EDFBDDFB5DFDFCF0895909334
:1002D0002301809322017ADF2D9A109A089583E0FA
:1002E00090E0909308018093070180E090E0EFDFB9
:1002F00085B1876085B90895909323018093220189
:1003000065DF2D9810980895909323018093220122
:100310005DDF2D98109A0895909323018093220118
:1003200055DF10982D9A08952C9A08952C980895C9
:10033000109206012B9A089581E0809306012B9874
:100340000895809107019091080101979093080109
:1003500080930701029709F42A98809107019091F0
:100360000801019709F429988091070190910801EB
:10037000892B09F4289808951092230110922201E4
:1003800025CF08951F920F920FB60F9211248F93CD
:100390009F939091C600892F8770823091F028F446
:1003A000882349F0813051F018C0843081F060F02A
:1003B000853081F012C09093200116C09093050102
:1003C00013C09093040110C0909303010DC090934B
:1003D00002010AC09093010102C0853029F496956C
:1003E00096959695909321019F918F910F900FBEB6
:1003F0000F901F9018958091C80085FF42C0809192
:1004000000018330B1F028F4813049F0823061F08E
:100410002EC08530C1F090F08630D1F028C0809198
:1004200020018093CE0023C0809105018093CE00EF
:100430001EC0809104018093CE0019C080910301F9
:100440008093CE0014C0809102018093CE000FC033
:1004500080912101882391F09091010197709093F0
:100460000101880F880F880F892B8093CE0080911F
:1004700000018F5F80930001873018F081E0809346
:10048000000108958FEF84B9E1EBF0E08081856091
:100490008083789417DF38DE02EB10E0F894C09187
:1004A00021017894F8018081883218F0A4DFF801E6
:1004B0001082109221018C2F90E08531910550F52A
:1004C000FC01EA5BFF4F64C187E994E000DF23C0D1
:1004D0008EE299E019DF1FC08EE299E01DDF1BC09C
:1004E00023DF19C023DF17C023DF15C025DF13C0AA
:1004F00043DF11C026DF0FC024DF1ADF0CC014DF7A
:100500008EE299E009DF07C087E994E0F5DE03C0D9
:10051000E6DE01C02C9A80910601882309F4BECF43
:1005200003DEBCCF6091090170910A01072E000C17
:10053000880B990B3ED020E030E040E05FE39DD097
:1005400005D07093230160932201089504D068942C
:10055000B1118DC0089570D088F09F5790F0B92FD9
:100560009927B751A0F0D1F0660F771F881F991F08
:100570001AF0BA95C9F712C0B13081F077D0B1E066
:10058000089574C0672F782F8827B85F39F0B93F76
:10059000CCF3869577956795B395D9F73EF490950A
:1005A0008095709561957F4F8F4F9F4F0895E89488
:1005B00009C097FB3EF490958095709561957F4FAB
:1005C0008F4F9F4F9923A9F0F92F96E9BB27939559
:1005D000F695879577956795B795F111F8CFFAF469
:1005E000BB0F11F460FF1BC06F5F7F4F8F4F9F4F9A
:1005F00016C0882311F096E911C0772321F09EE8F8
:10060000872F762F05C0662371F096E8862F70E05D
:1006100060E02AF09A95660F771F881FDAF7880F37
:100620009695879597F9089557FD9058440F551F53
:1006300059F05F3F71F04795880F97FB991F61F064
:100640009F3F79F087950895121613061406551FDB
:10065000F2CF4695F1DF08C0161617061806991F47
:10066000F1CF86957105610508940895E894BB273C
:1006700066277727CB0197F908950BD078C069D00A
:1006800028F06ED018F0952309F05AC05FC01124ED
:10069000EECFCADFA0F3959FD1F3950F50E0551F21
:1006A000629FF001729FBB27F00DB11D639FAA27C7
:1006B000F00DB11DAA1F649F6627B00DA11D661F16
:1006C000829F2227B00DA11D621F739FB00DA11D37
:1006D000621F839FA00D611D221F749F3327A00DF1
:1006E000611D231F849F600D211D822F762F6A2F8D
:1006F00011249F5750408AF0E1F088234AF0EE0F12
:10070000FF1FBB1F661F771F881F91505040A9F71E
:100710009E3F510570F014C0AACF5F3FECF3983EA6
:10072000DCF3869577956795B795F795E7959F5F85
:10073000C1F7FE2B880F911D9695879597F908951F
:1007400097F99F6780E870E060E008959FEF80EC84
:10075000089500240A941616170618060906089527
:1007600000240A9412161306140605060895092E8D
:100770000394000C11F4882352F0BB0F40F4BF2BFC
:1007800011F460FF04C06F5F7F4F8F4F9F4F08953C
:10079000EE0FFF1F0024001C0BBE0790F691E02D0A
:0607A0000994F894FFCF5C
:1007A6000105040302010103005C120118000600A2
:1007B6000C0006000C00060006001800E001F00020
:00000001FF
