:100000005AC000007FC000007DC000007BC000001F
:1000100079C0000077C0000075C0000073C0000008
:1000200071C000006FC000006DC000006BC0000018
:1000300069C0000067C0000065C0000063C0000028
:1000400061C000005FC000005DC000005BC0000038
:10005000EAC1000057C0000055C0000053C00000B6
:1000600051C000004FC000004DC000004BC0000058
:1000700049C0000047C0000045C0000043C0000068
:1000800041C000003FC000003DC00000D902DD02B9
:10009000E102E502E702E902EB02ED02EF02F10202
:1000A000F402F902FD02040304030403040304033D
:1000B000040303030B0311241FBECFEFD0E4DEBF04
:1000C000CDBF11E0A0E0B1E0E2EFFAE000E00BBF4D
:1000D00002C007900D92A632B107D9F721E0A6E23F
:1000E000B1E001C01D92A833B207E1F710E0CBE503
:1000F000D0E003C02197FE01C4D3CA35D107D1F7A0
:100100002ED2F5C47DCF57988FEF93EB0197F1F77F
:1001100000C0000089B190E0880F892F881F990BDB
:10012000892BC1F308951F93CF93DF93182FEB0111
:100130002A813B81232B81F48C819D81892B61F461
:1001400083E090E0A7D39D838C83FC01128211820F
:1001500010839B838A830FC083E090E09BD3FC01D4
:10016000AC81BD8112969C938E931197108312825D
:1001700011829D838C8388819981019699838883DC
:10018000DF91CF911F910895CF93DF93FC0182817E
:1001900093810097D1F0248135818217930729F448
:1001A000138212821582148207C0DC0111962D91F0
:1001B0003C91129733832283EF0101D48881998186
:1001C000009719F0019799838883DF91CF91089563
:1001D00080911101882379F0809196009091970089
:1001E0002091240130912501821B930B909399005B
:1001F0008093980008C0809196009091970090930A
:1002000099008093980086B5823E50F080912A0133
:1002100090912B01019690932B0180932A0116BC9B
:1002200080912C0190912D01FC01EE0FFF1FEE5EDD
:10023000FE4F4081518120912A0130912B014217BC
:100240005307B9F410922B0110922A0101968830BD
:10025000910529F090932D0180932C0104C01092F8
:100260002D0110922C019091110181E0892780933A
:100270001101089583E090E090930E0180930D01A9
:1002800085B1876085B90895E6E8F0E080819181C5
:100290002091280130912901821B930B90938900B2
:1002A00080938800808191812091280130912901DB
:1002B000821B930B90938B0080938A000895109279
:1002C000C50029E02093C400E1ECF0E080E18083E8
:1002D00096E09093C2008081806880831092CD0068
:1002E0002093CC0088E08093C9009093CA000895C1
:1002F00084B18F6184B985B1876085B90895E0E8DC
:10030000F0E08081826F8083E1E8F0E080818961A4
:10031000808380910F0190911001E6E8F0E09183D5
:10032000808380819181909389008093880080816F
:10033000918190938B0080938A008AB180638AB9FF
:10034000259A089A0895269AE0E9F0E08081826F64
:100350008083E1E9F0E080818961808380912201DE
:1003600090912301E6E9F0E091838083808191817F
:10037000909399008093980085B5826085BD08951B
:100380009EDFBDDFB5DFDFCF089590932901809315
:1003900028017ADF2D9A109A08959093290180936D
:1003A000280172DF2D981098089590932901809369
:1003B00028016ADF2D98109A08959093290180935F
:1003C000280162DF10982D9A08952C9A08952C9890
:1003D000089510920C012B9A089581E080930C01EE
:1003E0002B98089580910D0190910E0101979093A3
:1003F0000E0180930D01029709F42A9880910D0156
:1004000090910E01019709F4299880910D01909126
:100410000E01892B09F42898089510922901109251
:10042000280132CF08951F920F920FB60F92112418
:100430000BB60F922F933F934F935F936F937F93DE
:100440008F939F93AF93BF93EF93FF938091C600D9
:10045000982F9770923091F028F4992349F09130B9
:1004600051F018C0943081F060F0953081F012C0E6
:10047000809326011CC080930B0119C080930A0150
:1004800016C08093090113C08093080110C08093A7
:10049000070102C0953059F4982F96959695969538
:1004A00090932701F8946EE271E03DDE7894FF911D
:1004B000EF91BF91AF919F918F917F916F915F91DC
:1004C0004F913F912F910F900BBE0F900FBE0F9049
:1004D0001F9018958091C80085FF40C0809106014B
:1004E0008330B1F028F4813049F0823061F02BC0C4
:1004F0008530C1F090F08630D1F025C08091260182
:100500008093CE0020C080910B018093CE001BC051
:1005100080910A018093CE0016C0809109018093DA
:10052000CE0011C0809108018093CE000CC0F894D9
:10053000E0913001F091310180818093CE008EE214
:1005400091E022DE7894809106018F5F873018F465
:1005500080930601089581E08093060108958FEF4E
:1005600084B9E1EBF0E080818560808309DFEEE211
:10057000F1E0138212821582148211821082789423
:10058000C2DDC2EBD0E08881873310F0A3DF188290
:10059000F894E09127017894109227018E2F90E033
:1005A000FC013197E431F10508F02EC0EA5BFF4F02
:1005B00068C180ED97E0E9DE27C088E097E0F5DECE
:1005C00023C088E097E0F9DE1FC0FFDE1DC0FFDE1C
:1005D0001BC0FFDE19C001DF17C01FDF15C002DF1F
:1005E00013C000DFF6DE10C0F0DE88E097E0E5DE45
:1005F0000BC080ED97E0D1DE07C080ED97E0C5DE4F
:10060000E8DEF0DE01C036DE80910C01882309F4BB
:10061000BACFDEDDB8CF60910F0170911001072EC7
:10062000000C880B990B3ED020E030E040E05FE307
:100630009DD005D07093290160932801089504D0BE
:100640006894B1118DC0089570D088F09F5790F0D4
:10065000B92F9927B751A0F0D1F0660F771F881FE7
:10066000991F1AF0BA95C9F712C0B13081F077D04E
:10067000B1E0089574C0672F782F8827B85F39F0EC
:10068000B93FCCF3869577956795B395D9F73EF446
:1006900090958095709561957F4F8F4F9F4F0895EE
:1006A000E89409C097FB3EF490958095709561950C
:1006B0007F4F8F4F9F4F9923A9F0F92F96E9BB27C2
:1006C0009395F695879577956795B795F111F8CF3E
:1006D000FAF4BB0F11F460FF1BC06F5F7F4F8F4FA9
:1006E0009F4F16C0882311F096E911C0772321F09F
:1006F0009EE8872F762F05C0662371F096E8862F37
:1007000070E060E02AF09A95660F771F881FDAF78D
:10071000880F9695879597F9089557FD9058440F3F
:10072000551F59F05F3F71F04795880F97FB991F50
:1007300061F09F3F79F0879508951216130614060D
:10074000551FF2CF4695F1DF08C01616170618069A
:10075000991FF1CF86957105610508940895E89475
:10076000BB2766277727CB0197F908950BD078C070
:1007700069D028F06ED018F0952309F05AC05FC0F8
:100780001124EECFCADFA0F3959FD1F3950F50E06F
:10079000551F629FF001729FBB27F00DB11D639F33
:1007A000AA27F00DB11DAA1F649F6627B00DA11DD9
:1007B000661F829F2227B00DA11D621F739FB00D7F
:1007C000A11D621F839FA00D611D221F749F3327EF
:1007D000A00D611D231F849F600D211D822F762F88
:1007E0006A2F11249F5750408AF0E1F088234AF085
:1007F000EE0FFF1FBB1F661F771F881F91505040D1
:10080000A9F79E3F510570F014C0AACF5F3FECF3EB
:10081000983EDCF3869577956795B795F795E795BC
:100820009F5FC1F7FE2B880F911D9695879597F9CD
:10083000089597F99F6780E870E060E008959FEF62
:1008400080EC089500240A94161617061806090667
:10085000089500240A941216130614060506089536
:10086000092E0394000C11F4882352F0BB0F40F4BE
:10087000BF2B11F460FF04C06F5F7F4F8F4F9F4FFE
:100880000895EE0FFF1F0024001C0BBE0790F69189
:10089000E02D0994CF93DF938230910510F482E02C
:1008A00090E0E0913601F091370120E030E0C0E0C7
:1008B000D0E0309711F14081518148175907C0F0BD
:1008C0004817590761F482819381209719F09B831F
:1008D0008A832BC0909337018093360126C021155F
:1008E000310519F04217530718F49A01BE01DF01D0
:1008F000EF010280F381E02DDCCF2115310509F1F4
:10090000281B390B2430310590F412968D919C915F
:1009100013976115710521F0FB019383828304C055
:100920009093370180933601FD01329644C0FD015A
:10093000E20FF31F81939193225031092D933C9341
:100940003AC02091340130913501232B41F420919C
:10095000020130910301309335012093340120913D
:100960000001309101012115310541F42DB73EB749
:100970004091040150910501241B350BE091340195
:10098000F0913501E217F307A0F42E1B3F0B281757
:10099000390778F0AC014E5F5F4F2417350748F0F8
:1009A0004E0F5F1F50933501409334018193919313
:1009B00002C0E0E0F0E0CF01DF91CF9108950F9306
:1009C0001F93CF93DF93009709F48CC0FC013297FB
:1009D0001382128200913601109137010115110521
:1009E00081F420813181820F931F20913401309155
:1009F00035012817390779F5F0933501E093340173
:100A000071C0D80140E050E0AE17BF0750F4129615
:100A10002D913C911397AD012115310509F1D901B3
:100A2000F3CF9D01DA013383228360817181860FC8
:100A3000971F8217930769F4EC0128813981260FEB
:100A4000371F2E5F3F4F318320838A819B819383A1
:100A50008283452B29F4F0933701E093360142C09D
:100A60001396FC93EE931297ED01499159919E01D3
:100A7000240F351FE217F30771F480819181840FF1
:100A8000951F029611969C938E9382819381139663
:100A90009C938E931297E0E0F0E0D80112968D912E
:100AA0009C911397009719F0F8018C01F6CF8D9166
:100AB0009C9198012E5F3F4F820F931F209134012C
:100AC000309135012817390769F4309729F41092CD
:100AD00037011092360102C0138212821093350141
:100AE00000933401DF91CF911F910F910895F894F5
:020AF000FFCF36
:100AF2000000380120000105040302010103005C2B
:100B02001201180006000C0006000C000600060088
:060B12006200E001F000AA
:00000001FF
